:020000040000FA
:1000000080030020D9000000972600006D2000002A
:1000100000000000000000000000000000000000E0
:100020000000000000000000000000009B2A00000B
:10003000000000000000000099270000413D000082
:1000400021430000D72200005D2800005115000068
:10005000B12C0000E9170000EB17000000000000C1
:100060000000000000000000000000000000000090
:1000700009080000410B0000C5410000C741000015
:10008000AF1900000000000000000000D5220000B1
:10009000430B0000450B0000470B000071200000DF
:1000A00000000000992A000000000000AD3F0000A1
:1000B000AF3F00000000000000000000B90F00008A
:1000C0000448854600F056FB00480047E54600001E
:1000D000C046C04680030020064908688546064899
:1000E000804706480047FEE7FEE7FEE7FEE7FEE73B
:1000F000FEE7000000000000913D0000C10000008C
:1001000030B50B46014600202022012409E00D46AF
:10011000D5409D4205D31D469540491B2546954037
:1001200040191546521E002DF1DC30BD70B500247B
:100130002546002801DA01244042002901DA012580
:100140004942FFF7DDFFAC4200D04042002C00D016
:10015000494270BDD2B201E00270401C491EFBD280
:1001600070470022F6E710B513460A4604461946C2
:10017000FFF7F0FF204610BD024670B54A40D30F8E
:10018000DB0740002DD04A002AD0010E140E0002D9
:1001900012020919400A520A8418E5010446544320
:1001A000000A120A2E045043A4194219200CC54318
:1001B000AA18120C0125AD03521C521912047F39E2
:1001C000240400D0521C104301D44000491EC2B286
:1001D0000C06C0092018401C4008802A02D003E009
:1001E000002070BD40084000002900DA00201843BC
:1001F00070BD70B502464A40D50F40004A00ED0779
:1002000040085208002814D0002A12D0C40DD30D83
:1002100041020120C0055202490A520AE41A091893
:1002200012187D34914201D3641C00E04900002C77
:1002300001DA002070BD0023914201D3891A0343E3
:10024000400849000028F7D100290AD0914202D184
:100250000121C90705E0914201D2012101E00121FC
:10026000C943E005C018401900F0E4F970BD000072
:10027000F0B507460846584087B0C00F04904800C4
:100280000E46590040084908BC1A884105D2384634
:1002900031461E4617460B4602465800400810439A
:1002A0004DD0300D039040055900400D490D05908B
:1002B000401A0290402873DA18030121000B090547
:1002C0000843019004980092002806D01146019A34
:1002D00049420020904100910190029840210A1A61
:1002E0000199009800F072F905460C466B4607CB61
:1002F00000F08DF9C0197141039A0E0D0023D71734
:1003000056401A467A40164344D0049A002A2DD00B
:10031000029A012A039A15DC1205C01A914101269E
:100320003605001C7141D20F059ED2070093019241
:1003300002962A46234600F0CBF907B0F0BD3846B6
:100340003146FAE71605234A0F46B218C01AB741DC
:1003500001210905001C4F4100187F411146181862
:100360007941E20F10436D19644113E0E2076D0813
:1003700015436408C2071443039A01261205C01AE4
:1003800091413605001C7141CE07400830434908B1
:10039000C01851412A46234600F08DF9CDE7FFE70A
:1003A000049801224000C117121A00238B410498BF
:1003B0003146C417381AA141EEE730B40124E407EE
:1003C000634030BC54E730B40124E407614030BCE2
:1003D0004EE700000000E0FFF0B51FB488B00B99B5
:1003E0000998002448400999C00F4900490809911B
:1003F000C0070B990090490049080B91099908988A
:10040000A64608431CD00B990A98084318D00998AF
:1004100001244000420D4800410D099824050003C5
:10042000000B204309900B980003000B20430B9016
:1004300050181C494018002201901446104605E04F
:10044000002001460DB0F0BD032801DA034600E0AC
:1004500003239C46C11A0AAE0AE05F0008ADED5BBB
:100460004F00F75B7D430027AA187C41491C5B1EA7
:100470006145F2DD410004AB5A522104120C0A43DB
:10048000240C401C0828DFDB01980290009970467C
:1004900001910090059B049A0799069800F018F9BD
:1004A000D0E700000DFCFFFF10B500229623114697
:1004B00000F0C8F810BD00000EB5C217C10F5040C3
:1004C000CA0740180021054B0293019200910A4689
:1004D0000B4600F0FDF803B000BD0000330400003F
:1004E000410040020122400AD205090E80187F29EE
:1004F00001DA00207047962903DC9622511AC84081
:1005000070479639884070474A0009030123090B58
:100510001B051943094B10B5520D9A4201DA002010
:1005200010BD064B34339A4203DC9A1A00F05EF891
:1005300010BD03495118884010BD0000FF030000A2
:10054000CDFBFFFFC20FD207400040080BD0C10D0A
:100550000723DB01C91840020905400A1143C208FC
:10056000400711437047002001467047CB0FDB075F
:10057000490010B5490802460A4307D00A0D07246E
:100580000903E401090B121B002A01DC002010BD45
:10059000C900440F0C43C100E018D205801800F0D8
:1005A00049F810BD0122D207002800DB101A0029EB
:1005B00000DB511A814270470122D207002800DB7C
:1005C000101A002900DB511A8842704710B5202A02
:1005D00004DB0146203A9140002010BD91402023C9
:1005E0009C1A0346E3401943904010BD10B5202AE1
:1005F00004DB0846203AD040002110BD0B46D34012
:10060000D0402024A21A91400843194610BD10B5CD
:10061000202A06DBCB170846203A1041C1170B43AE
:1006200006E00B461341D0402024A21A9140084313
:10063000194610BD002904DA401C490001D14008C8
:100640004000704770B40024050C05D1102400044C
:1006500002D1002921D01124050E01D10002083455
:10066000050F01D10001241D850F01D18000A41CBC
:10067000002801DB4000641C002908D020252E1B27
:100680000D46F540A14000D0012129430843010651
:100690001B1B000ADB1D02D5002070BC7047DB0568
:1006A000181880180029F8DA401C4900F5D170BCF0
:1006B00040084000704710B5002B08DA0024401CA9
:1006C000614192185B411A4301D14008400010BDBE
:1006D000F0B51FB482B005460C0003D0084603F005
:1006E00020FE02E003F01DFE20300246009021466D
:1006F0002846FFF76BFF049B059A04460F461843F4
:100700001143084314D0184610431BD000984021D1
:100710000A1A18460599FFF769FF05460E46009A22
:1007200005990498FFF752FF084305D0012004E023
:100730002046394607B0F0BD0020C11705430E43DF
:100740002C43374300990E986305401A7905E40A53
:1007500000220C43FD0A0A3002D500200146E9E7D9
:100760000105101969410C9C0D9D00196941FFF7A5
:10077000A2FFDFE7064C0125064E05E0E36807CC43
:100780002B430C3C98471034B442F7D3FFF79CFC42
:10079000944A0000B44A0000002001498863704771
:1007A00040000040012080070068012108438907BC
:1007B0000860012070470000002800D170470249FE
:1007C0000968018000BFF9E740000040002800D11F
:1007D000704702494968018000BFF9E740000040C6
:1007E000002800D1704702498968018000BFF9E7FD
:1007F00040000040002800D170470249C9680180CC
:1008000000BFF9E7400000400648C06B02210840E5
:10081000002803D00348C06B034908700020014939
:1008200088637047400000402C00002070B50446EB
:100830000D46002D01D0012D00D103E0EE210EA0C8
:1008400003F0DFFD14482040002802D1002C00D026
:1008500003E0EF2108A003F0D4FD002D05D00F48E0
:10086000406B20430D49486304E00C48406BA043B3
:100870000A49486370BD00002E2E5C4C69627261AB
:10088000726965735C7372635C637733326C3031A9
:10089000305F6164632E6300F0FF000040000040A1
:1008A00010B504462068002808D02068102805D01C
:1008B0002068202802D02068302800D103E05D2184
:1008C0006CA003F09EFD7348806B73490843714927
:1008D00088632168A068084361680843012189078B
:1008E0000968FF22F9329143084301218907086012
:1008F0000846C06A00090001217C0907090F084366
:1009000001218907C8620846C06AF0218843A169AD
:100910000901F0221140084301218907C8620846F5
:10092000C06A11018843216A09021201114008437B
:1009300001218907C8620846C06A11018843A16A7B
:10094000090312011140084301218907C8620846C2
:10095000C06A11018843218E090412011140084325
:1009600001218907C8620846C06A11018843218FA6
:10097000090512011140084301218907C862084690
:10098000C06A110188434021095D09061201114026
:10099000084301218907C8620846C06A00010009AE
:1009A0004821095D0907090F090708430121890743
:1009B000C8620846806A00090001217B0907090F07
:1009C00008430121890788620846806AF02188432C
:1009D00061690901F02211400843012189078862F9
:1009E0000846806A11018843E16909021201114039
:1009F00008430121890788620846806A11018843FB
:100A0000616A0903120111400843012189078862C4
:100A10000846806A11018843A18D09041201114022
:100A200008430121890788620846806A11018843CA
:100A3000A18E09051201114008430121890788622E
:100A40000846806A11018843A18F090612011140EE
:100A500008430121890788620846806A000100096D
:100A6000616C0907090F090708430121890788629A
:100A700010BD00002E2E5C4C696272617269657354
:100A80005C7372635C637733326C3031305F616406
:100A9000632E63000040004001005A5A10B504461E
:100AA000002C01D0012C00D104E0FF210B310BA060
:100AB00003F0A7FC002C07D00120800780680121EB
:100AC00008438907886007E00120800780684008A4
:100AD000400001218907886010BD00002E2E5C4C6B
:100AE00069627261726965735C7372635C637733A8
:100AF000326C3031305F6164632E630010B503F0F7
:100B0000CBFD03F0A3FD10BD10B502F055FCFF2096
:100B1000913003F0FFF802F03BFFFF20913003F02B
:100B2000F9F801F0B1FDFF20913003F0F3F801F086
:100B300053FFFF20913003F0EDF8FFF7DFFF10BD0A
:100B4000704770477047704710B501221146092061
:100B500002F000FFD9480078042874D1002208214F
:100B6000112002F0F7FE00220421112002F0F2FE13
:100B7000D34800882D21090188420ADD01220F2176
:100B8000102002F0E7FE01220221092002F0E2FE1D
:100B900092E1CB4800885521C900884229DD002216
:100BA0000821102002F0D6FE01220321102002F0BD
:100BB000D1FE01221146102002F0CCFE01220221BA
:100BC000092002F0C7FEBF480078002808D10120A4
:100BD000BC49087001220421102002F0BBFE6BE129
:100BE0000020B849087000220421102002F0B2FE53
:100BF00062E1B3480088B449884225DD00220C2117
:100C0000102002F0A7FE01221146102002F0A2FEE1
:100C100001220221092002F09DFEAA480078002846
:100C200008D10120A749087001220221102002F0FA
:100C300091FE41E10020A34908700022022110200A
:100C400002F088FE38E161E09D4800884B21C90030
:100C500088421FDD00220E21102002F07BFE0122BF
:100C60000221092002F076FE96480078002808D17B
:100C700001209449087001221146102002F06AFEFA
:100C80001AE100208F49087000220121102002F093
:100C900061FE11E18A480088FF21F53188421ADDA2
:100CA00000220F21102002F055FE8648007800280F
:100CB00008D101208349087001220221092002F095
:100CC00049FEF9E000207F49087000220221092036
:100CD00002F040FEF0E000220F21102002F03AFE68
:100CE00078480078002808D1012076490870012250
:100CF0000221092002F02EFEDEE00020714908707A
:100D000000220221092002F025FED5E0012208215F
:100D1000112002F01FFE00220421112002F01AFE11
:100D200067480088694988420ADD01220F211020A6
:100D300002F010FE01220221092002F00BFEBBE0AE
:100D40005F48008861496439884229DD0022082112
:100D5000102002F0FFFD01220321102002F0FAFD15
:100D600001221146102002F0F5FD01220221092086
:100D700002F0F0FD53480078002808D101205149C5
:100D8000087001220421102002F0E4FD94E000200C
:100D90004C49087000220421102002F0DBFD8BE09A
:100DA000474800884949C839884224DD00220C217F
:100DB000102002F0CFFD01221146102002F0CAFDE2
:100DC00001220221092002F0C5FD3E4800780028DA
:100DD00008D101203B49087001220221102002F0B5
:100DE000B9FD69E000203749087000220221102077
:100DF00002F0B0FD60E0324800884B2109018842D2
:100E00001FDD00220E21102002F0A4FD012202218C
:100E1000092002F09FFD2B480078002808D101200E
:100E20002849087001221146102002F093FD43E08A
:100E300000202449087000220121102002F08AFDC0
:100E40003AE01F4800887D21C90088421ADD00224F
:100E50000F21102002F07EFD1A480078002808D1EA
:100E600001201849087001220221092002F072FDB8
:100E700022E000201349087000220221092002F01C
:100E800069FD19E000220F21102002F063FD0D48DA
:100E90000078002808D101200A49087001220221A7
:100EA000092002F057FD07E00020064908700022E3
:100EB0000221092002F04EFD10BD000000000020BC
:100EC0001A0000203800002076020000AA05000069
:100ED00010B532480078002807D000224021304861
:100EE00000F05FFD00202D49087001F021F8044654
:100EF00080212B4800F04CFD012800D100E00020AB
:100F00002849087008460078002830D12648007823
:100F100000283BD125480078002804D0012808D0BB
:100F2000022823D10EE001202049087020480460E7
:100F30001CE01F480068201A322802D302201B49F7
:100F4000087013E01A480068201A1A4988420CD326
:100F500000F0F8FF012014490870002013490870C0
:100F60001349086001200F49087000BF0EE00F48C8
:100F70000078022805D10C480078002801D101F042
:100F80000FF80020094908700749087080210448BB
:100F900000F0FEFC0349087010BD00000D000020A9
:100FA000000100480E000020140000200C0000206A
:100FB00010000020B80B0000704710B5012202217C
:100FC0000920C00600F0EDFC012211460920C006F0
:100FD00000F0E7FC10BD10B5002202210920C00678
:100FE00000F0DFFC002201210920C00600F0D9FC3E
:100FF00010BD000010B51B480078030003F0A8F9ED
:1010000007050A0F14191E2A2F00FFF7E4FFFFF748
:1010100075FD24E002F0D8F902F0CEF91FE002F0ED
:10102000BFFC02F0B5FC1AE001F092F901F02CFBD4
:1010300015E001F0D9FC01F0CFFC10E001F010FC4C
:10104000FFF75CFD08480078002802D00020054921
:10105000087004E001F0A2FBFFF750FD00BF00BFE5
:1010600010BD0000000000203B00002010B517213B
:101070000648FFF776F8002405E00021204602F03C
:1010800074FB601CC4B2172CF7DB10BD12010020EA
:1010900000B5064806490268064801F021FB0348EE
:1010A00003490268044801F01BFB00BD5400002006
:1010B000850200005001002060010020F0B589B0D9
:1010C0000546002600271D4808900020079006903E
:1010D000002400BF13E06000295A0898814202DA18
:1010E0006000285A08906000285AB84201DD60006C
:1010F0002F5A6000285A801986B2601CC4B20A2C8C
:10110000E9DB0898C019301A4003000C07900798D3
:10111000FFF7CAF90190FFF715FA094A094B039145
:101120000290FFF759F905910490FFF71FFA069016
:101130000698FFF7D5F980B209B0F0BDFFFF0000B7
:101140000C022B8716D9E23FF8B50546002700268A
:10115000002417480078002801D0412000E08120B9
:101160000446144914480068FFF71CFA01D82846C1
:10117000F8BD124910480068FFF714FA01D8A6B26A
:1011800011E00F490C480068FFF70CFA02D8600420
:10119000060C08E00B4908480068FFF703FA02D87C
:1011A0006000201886B2A81B87B23846E0E700002E
:1011B0003D0000200000A042240000200000AA42C0
:1011C0000000B4420000BE4210B586B0002409E021
:1011D0000A2060430B494018C088610001AA5052A0
:1011E000601CC4B20A2CF3DB01A8FFF767FF0649B5
:1011F0000880084600880A2801DA0020088006B026
:1012000010BD0000A40000201C00002070B5444860
:10121000006B444908434903086300261F20C002AD
:101220000568E843002801D0012006431F20C002C2
:101230004068C043002801D0022006437D204002C0
:101240000468E043002801D0042006437D204002CA
:101250004068C043002801D008200643082E1ED055
:1012600006DC002E0BD0022E0AD0032E54D10FE044
:101270000C2E23D00E2E28D00F2E4DD134E000BFDF
:101280000120294908601F20C00200F0DBF843E07C
:10129000254805601F20C00200F0DEF83CE022482F
:1012A00005601F20C00200F0D7F87D20400200F04A
:1012B000C9F81F20C00200F0A1F82DE01A48046010
:1012C0007D20400200F0C8F826E0174804607D2029
:1012D000400200F0C1F81F20C00200F0B3F87D20EA
:1012E000400200F08BF817E0A5420AD90E480560CD
:1012F0001F20C00200F0B0F87D20400200F07EF810
:1013000009E0094804607D20400200F0A5F81F2094
:10131000C00200F073F800BF00BF00F053F870BDCA
:101320000040004002005A5A880000200146480050
:10133000014A105A704700007001002070B5044641
:101340000D4668001A49085AA0422FD068000C5276
:10135000184800888000184909684618310B012098
:101360008840164908431649886000BF1448406AFF
:10137000202108400028F9D11048401C104908607D
:1013800028042043306000BF0D48406A20210840F7
:101390000028F9D109480A49086088600548008892
:1013A000401C0449088000F00DF800BF70BD00002B
:1013B00070010020900000208C00002000005A5A8C
:1013C0000020024010B50B480088802811DB0A4835
:1013D00004681F21C9028C4202D17D21490201E02B
:1013E0001F21C902084600F05DF8204600F006F80B
:1013F00000BF10BD900000208C000020020B0121D6
:1014000091400E4A11430E4A916000BF0C49496A4F
:10141000202211400029F9D10849891C084A11608D
:101420000021016000BF0649496A202211400029BD
:10143000F9D10249024A11609160704700005A5A7E
:101440000020024010B504462046FFF7D7FF204693
:1014500000F028F810BD000010B501460E4A1160DA
:1014600001220E4B1A8011E00C4A12889200885813
:10147000C243002A04D0030C5B00094CE05200E098
:1014800008E0064A1288521C044B1A80034A12884C
:10149000802AE9DB00BF10BD8C00002090000020F6
:1014A00070010020020B01219140234A1143234A7D
:1014B000916000BF2149496A202211400029F9D1D9
:1014C0001D49491C1D4A116001211D4A11801AE065
:1014D0001B490988491E0904194A1288521E5200E4
:1014E000184B9A5A1143164A12889200815000BF35
:1014F0001249496A202211400029F9D1104909886E
:10150000491C0F4A11800E4909880529E0D90E4966
:101510000968491C0C4A1160016000BF0749496A0B
:10152000202211400029F9D10349044A1160916039
:10153000064908607047000000005A5A0020024027
:101540009000002070010020880000208C00002006
:101550007047000010B57D497D480068FFF72CF802
:1015600005D97C497C480068FFF726F80BD87B48F2
:101570000078142801DD022010BD78480078401C56
:101580007649087002E00020744908707448407879
:1015900002280DD173496E480068FFF70DF805D396
:1015A00071496D480068FFF707F801D80220E3E7AA
:1015B0006E480078002831D16D4965480068FEF713
:1015C000FBFF0FD26B4800783C2805DD01206A49FB
:1015D00008706649087021E066480078401C65493B
:1015E00008701BE065495A480068FEF7DBFF10D21F
:1015F000604800783C2806DD02205F490870012021
:101600005A4908700AE05B480078401C5949087044
:1016100004E000205749087057490870584800787E
:10162000012801D10720A7E756480088D22809DA07
:10163000554801780078401C534A10700A2914DD7F
:101640000A2099E74F480088FF211931884209DABA
:101650004D4801780078401C4B4A10700A2904DD7F
:101660000A2089E700204849087048480088C828AF
:101670000DDC47480078062809D0464801780078F4
:10168000401C444A1070022904DD0B2074E700203E
:101690004049087040480088404988420BDB404878
:1016A0000078192801DD052066E73D480078401CD8
:1016B0003B49087002E0002039490870334800882F
:1016C000384988420EDB38480078192804DD0120AB
:1016D0003649087004204FE733480078401C3249EF
:1016E000087002E000203049087030480078002877
:1016F0000BD0264800882B49C839884203DC0020DB
:101700002A49087001E0042036E7294800780428B7
:1017100003D027480078052801D109202CE7254867
:101720000078002810D124480078062807DD2348D7
:1017300000781749087001201E49087004E01E480F
:101740000078401C1C490870002015E70000BE42CC
:10175000240000200000C842280000204300002090
:101760003B00002000008C420000A0424B00002003
:101770000000E041470000203F0000200000204121
:101780004100002018000020480000201A0000201E
:1017900000000020490000201C0000204C04000034
:1017A00045000020A4060000440000204600002060
:1017B000500000204C0000204A00002001000020C2
:1017C00010B50F2217210748FEF7C4FC002405E0DE
:1017D0000F21204601F0C9FF601CC4B2172CF7DBB3
:1017E00010BD000012010020704770471F48006BB9
:1017F0001F4908431D4908631E48C06910218843DA
:101800001C49C861084600681021884319490860CE
:101810000846406810218843164948600846806998
:1018200007210904884303214904401811498861AC
:101830000846C069202188430E49C86108460068EF
:10184000202188430B4908600846406820218843CE
:101850000849486008468069072109058843032133
:101860004905401803498861704700000040004066
:1018700020005A5A00010048C2690A43C261026846
:101880000A43026002698A430261426A8A434262F1
:10189000826A8A43826242688A43426070470000DB
:1018A0001722D2068218002A04D0FF3A013A002AF1
:1018B0000FD106E02E4A126B2E4B1A432C4B1A63A3
:1018C00008E02B4A126B2B4B10331A43284B1A6338
:1018D00000E000BF00BF4A68002A04D1C2690B685B
:1018E0001A43C26142E0C2690B689A43C261102385
:1018F0004A681A40102A29D102680B681A4302600C
:1019000002690B689A4302614A68112A03D102698D
:101910000B681A430261426A0B689A434262826A08
:101920000B689A43826281238A681A40812A03D114
:10193000426A0B681A43426282238A681A40822AEA
:1019400014D1826A0B681A4382620FE002680B6846
:101950009A4302604A68202A04D142680B689A437D
:10196000426003E042680B681A434260704700001F
:101970000040004010005A5A034880680349084359
:1019800001498860704700000040004001005A5A39
:101990000246106D0840002801D001207047002049
:1019A000FCE7012A01D1C16500E0816570477047FD
:1019B00070B504460D460D48844200D104E0FF2175
:1019C000E3310BA002F01DFD002D01D0012D00D14F
:1019D00004E0FF21E43106A002F013FD2068400876
:1019E0004000E907C90F0843206070BD001800409F
:1019F0002E2E5C4C69627261726965735C737263EE
:101A00005C637733326C3031305F6774696D2E639D
:101A10000000000010B504460548844200D103E0F0
:101A2000044905A002F0EDFCA06B80B210BD0000DF
:101A3000001800404B0200002E2E5C4C696272615F
:101A4000726965735C7372635C637733326C3031D7
:101A5000305F6774696D2E630000000010B50446A6
:101A60000548844200D103E0044905A002F0C9FC06
:101A7000E06B80B210BD000000180040570200006B
:101A80002E2E5C4C69627261726965735C7372635D
:101A90005C637733326C3031305F6774696D2E630D
:101AA0000000000070B504460D460D48844200D188
:101AB00003E0C7210BA002F0A4FC002D01D0012DF2
:101AC00000D103E0C82107A002F09BFC206A10218E
:101AD00088432901102211400843206270BD000094
:101AE000001800402E2E5C4C696272617269657349
:101AF0005C7372635C637733326C3031305F677470
:101B0000696D2E630000000070B504460D4638482C
:101B1000844200D103E08B2136A002F072FC686899
:101B20000F2803D868680A2800D003E08C2131A070
:101B300002F067FCA868012802D0A868002800D13C
:101B400003E08D212BA002F05CFC2878002802D055
:101B50002878012800D103E08E2126A002F051FC54
:101B60006878002802D06878012800D103E08F212E
:101B700020A002F046FC206A20218843A968490180
:101B80002022114008432062206A8021884320627D
:101B9000A069032109028843A061A069510188431B
:101BA00029788902520111400843A061A0695100BF
:101BB00088436978C902520011400843A061A069B6
:101BC00007210903884369680903072212031140AA
:101BD0000843A061A069012109068843A988C908B2
:101BE00009060122120611400843A06170BD0000E1
:101BF000001800402E2E5C4C696272617269657338
:101C00005C7372635C637733326C3031305F67745E
:101C1000696D2E630000000070B504460D460E4845
:101C2000844200D103E0CE210CA002F0EAFB002D9B
:101C300001D0012D00D103E0CF2108A002F0E1FB8B
:101C4000206AFF21013188432902FF22013211401D
:101C50000843206270BD0000001800402E2E5C4C2E
:101C600069627261726965735C7372635C63773316
:101C7000326C3031305F6774696D2E630000000094
:101C800070B504460D463748844200D103E09C21DC
:101C900035A002F0B6FB68680F2803D868680A28E8
:101CA00000D003E09D2130A002F0ABFBA868012822
:101CB00002D0A868002800D103E09E212AA002F0EB
:101CC000A0FB2878002802D02878012800D103E062
:101CD0009F2125A002F095FB6878002802D0687843
:101CE000012800D103E0A0211FA002F08AFB206A96
:101CF000012149028843A968490201225202114088
:101D000008432062206A910088432062E0698008CD
:101D10008000E061E0690421884329788900042279
:101D200011400843E061E069082188436978C900EF
:101D3000082211400843E061E06970218843696826
:101D40000901702211400843E061E06901210904A2
:101D500088436968C9080904012212041140084334
:101D6000E06170BD001800402E2E5C4C696272610B
:101D7000726965735C7372635C637733326C3031A4
:101D8000305F6774696D2E630000000070B5044613
:101D90000D460548844200D103E0044904A002F046
:101DA00030FBA56370BD0000001800402502000054
:101DB0002E2E5C4C69627261726965735C7372632A
:101DC0005C637733326C3031305F6774696D2E63DA
:101DD0000000000070B504460D460548844200D15D
:101DE00004E08B21890003A002F00BFBE56370BDCA
:101DF000001800402E2E5C4C696272617269657336
:101E00005C7372635C637733326C3031305F67745C
:101E1000696D2E630000000070B505460C46394818
:101E2000854200D103E03E2137A002F0EAFA2068A3
:101E3000802802D02068002800D103E03F2132A092
:101E400002F0DFFA6068002808D06068202805D01A
:101E50006068402802D06068602800D103E040211B
:101E600029A002F0CEFAA068002802D0A0681028AD
:101E700000D103E0412124A002F0C3FAE068082861
:101E800002D0E068002800D103E042211EA002F049
:101E9000B8FA2069042802D02069002800D103E0A4
:101EA000432119A002F0ADFA6069002802D06069F0
:101EB000022800D103E0442113A002F0A2FA1B493A
:101EC000A069884200D803E045210FA002F099FAEA
:101ED000616820680843A1680843E16808432169F4
:101EE0000843616908432968FE229143084328603A
:101EF000A069A862E069E862A868C008C000A8609C
:101F000070BD0000001800402E2E5C4C69627261AA
:101F1000726965735C7372635C637733326C303102
:101F2000305F6774696D2E6300000000FFFF0000E2
:101F300010B500F001F810BD0148006870470000BE
:101F40009400002010B501201049087000201049AD
:101F5000087010490870FFF789F80F4800780628C4
:101F600003D00D480078052803D100200A490870E5
:101F70000AE00A4800780B2803D1062006490870B9
:101F800002E005200449087010BD00005000002048
:101F90003200002033000020000000203B00002021
:101FA00010B501202A49087000202A4908702A49E2
:101FB0000870FFF75BF829480078002809D1284805
:101FC0000078002801D1012000E00020234908709A
:101FD00014E022480078062803D100201F49087029
:101FE0000CE01E480078052803D101201B49087029
:101FF00004E01A480078401C184908701948007815
:10200000012803D018480078012806D10020134980
:1020100008701449087014490870104800780128A5
:1020200009DB0E480078042805DC00210B48007805
:10203000FFF784F903E000210846FFF77FF9052147
:1020400006480078FEF772F8C8B20449087010BD5F
:10205000500000203200002033000020000000204B
:102060003B000020420000204100002000BFFEE7AE
:102070007047000070B504463E4D2068002811D01E
:10208000206801280ED0206802280BD02068032881
:1020900008D02068042805D02068052802D02068D0
:1020A000072800D103E02C2133A002F0AAF96068D0
:1020B000002802D06068082800D103E02D212EA05E
:1020C00002F09FF9E068202802D0E068002800D1E3
:1020D00003E02E2128A002F094F93049606988427B
:1020E00000D803E02F2124A002F08BF92B492069AE
:1020F000884200D803E030211FA002F082F928486E
:10210000406B1021884310302549486325482649F3
:10211000086026480860207A012809D16168206893
:10212000084310210843E16808431F49486006E05E
:10213000616820680843E16808431B4948601A4900
:10214000206988606069086100BF1748C06840075F
:10215000400F002804D02846691E8DB20028F4D113
:10216000002D01D1012070BD11480F4908600020E9
:10217000F9E70000FFFF00002E2E5C4C69627261DF
:10218000726965735C7372635C637733326C303190
:10219000305F697764742E6300000000FF0F000059
:1021A00000400040CCCC00000050004055550000DD
:1021B000666600000148024908607047AAAA00004C
:1021C0000050004010B586B0044618216846FDF75F
:1021D000C8FF7F2C05D03F2C03D01F2C01D00F2C23
:1021E00000D103E0F12112A002F00BF901206946B1
:1021F00008720020019020200390072000901548CD
:1022000005900494144840680007C00F002801D1CD
:1022100000F050FD6846FFF72DFF00BF0F48104942
:10222000086000BF00BF0F48086000BF06B010BDC7
:102230002E2E5C4C69627261726965735C737263A5
:102240005C637733326C3031305F697764742E634E
:1022500000000000FF0F000000400040CCCC000058
:1022600000500040AAAA000070B505461548017844
:102270007D20C000FDF744FF064631462846FDF7A5
:102280003FFF0446601E1049884201D901200CE03E
:10229000601E0E4948610321081F02F067F8002004
:1022A0000A498861072008610020002800D070BD1D
:1022B0000021481E02F05AF800200549086000BFBE
:1022C000F5E700009C000020FFFFFF0000E000E0B9
:1022D000980000207047704710B50022082109209F
:1022E000C006FFF75EFB012208210920C006FFF7A8
:1022F00058FB002208210920C006FFF752FB0120ED
:1023000001F01CFA292001F019FA022001F016FA56
:10231000032001F013FAFFF753FA012240210B4882
:10232000FFF73FFBFF20F53001F0F4FC00224021D5
:102330000648FFF736FBFF20F53001F0EBFCFEF717
:10234000E3FBFEF793FE002010BD000000010048F3
:10235000F8B5BB480078030001F0FAFF061004113D
:1023600034A8F1100020B7490870FEF734FEB648D3
:102370000078002802D10220B14908705DE10020F8
:10238000B0490870FEF727FEFF20D83001F0AAFA06
:10239000FF20273001F056FAAC480088AC4988424B
:1023A00003DB0020AB490870F8BDAA480078401C48
:1023B000A8490870084600780A2802DD0320A049D1
:1023C00008703AE1FEF7F9FDA3480078012828D10A
:1023D000A249C868FEF7B6F80446A14AA14BFDF72A
:1023E000FBFF0646FEF790F880B2009001F07AFA03
:1023F00094480078002803DDFF20273001F022FAFE
:1024000090480078052802DD974801F01BFA8D48B6
:102410000078062835DA8B480078401C8949087016
:102420002FE08E498868FEF78DF806468F4A904B5C
:10243000FDF7D2FF0446FEF767F880B2009001F086
:1024400051FA80480078002803DDFF20273001F092
:10245000F9F97C480078052802DD834801F0F2F99B
:10246000784800780A2803DD7948BE3801F0EAF997
:10247000744800780C2804DA72480078401C7149CE
:1024800008707C48008832280CDA7B480078401CB1
:102490007949087008460078642806DD04206849F8
:1024A000087002E0002074490870C6E0FEF793FD52
:1024B000FF20D83001F016FAFF20273001F0C2F9D2
:1024C0000020644908706C4908706C4908706248C3
:1024D0000078012818D15D480088694988420FDAE0
:1024E00068480078401C67490870084600786428EE
:1024F00023DD05205249087000205F4908701CE068
:1025000000206049087018E0504800885049C839D8
:1025100088420FDA5B480078401C5A490870084628
:102520000078642809DD05204549087000205249DB
:10253000087002E00020534908707EE0FFE7FEF7D4
:102540003CFD4E4800780A285DDD434800780128AC
:1025500028D14249C868FDF7F5FF0446404A414B7F
:10256000FDF73AFF0646FDF7CFFF80B2009001F07D
:10257000B9F934480078002803DDFF20273001F046
:1025800061F930480078052802DD374801F05AF932
:102590002C48007806283BDA2A480078401C294954
:1025A000087035E02D498868FDF7CCFF04462F4AB6
:1025B0002F4BFDF711FF0646FDF7A6FF80B20090F6
:1025C00001F090F91F480078002803DDFF20273034
:1025D00001F038F91B480078052802DD224801F097
:1025E00031F9184800780A2803DD1948BE3801F08F
:1025F00029F9144800780C280ADA12480078401C9F
:102600001049087004E01D480078401C1B49087000
:102610001848008832280CDA17480078401C164900
:10262000087008460078642806DD04200449087014
:1026300002E000201049087000BF00BF00BFB3E6F1
:1026400050000020800000203B0000201A000020E5
:10265000DC0500007C0000203D0000205800002028
:1026600085EB51B81EC53F4085020000B81E85EBC2
:1026700051383F401C0000207D0000207F000020DA
:10268000280A00007E00002010B5FEF737FA01206E
:1026900002F009F810BD704710B500220F210E207E
:1026A00001F058F900220E210F2001F053F910BD5E
:1026B00010B500220F210C2001F04CF900220E2150
:1026C0000D2001F047F910BD10B500220F210A209E
:1026D00001F040F900220E210B2001F03BF910BD62
:1026E00000230360416082600373704700B58BB0C4
:1026F000FFF77CF8202103A8FDF733FD00200090B0
:10270000019002902048806B204908431E4988634D
:102710000020049080200390002005900420079062
:10272000032009900020069019480A900220089082
:1027300003A91848FFF770FB0021684601700620C6
:102740000190002002906846417069461148FFF7E9
:1027500097FA69460F48FFF7D7F900210D48FFF7B0
:1027600039FB00210B48FFF711FB01210948FFF756
:1027700053FA01210748FFF795F901210548FFF7B2
:1027800017F90BB000BD00000040004040005A5A4D
:10279000B70B0000001800407047000010B52A4831
:1027A0000078030001F0D4FD064E040E1C424D4E8D
:1027B000FEF711FC25480078002802D102202249AA
:1027C00008703FE0FEF707FCFF20A93001F08AF80F
:1027D000FF20273001F036F803201B49087031E054
:1027E000FEF7EBFBFF20A93001F07CF818480078D9
:1027F000002803DDFF20273001F024F8144800787A
:10280000052802DD134801F01DF8114800780A2858
:1028100002DD114801F016F80D4800780C2804DAA2
:102820000B480078401C0A4908700BE0FEF7D3FB08
:10283000FF20A93001F056F8FF20273001F002F800
:1028400000E000BF00BF10BD500000203B00002092
:102850008400002085020000A105000070470000F0
:1028600010B552480078030001F072FD069C040E7A
:102870002E8B9B9CFEF7AFFB4D480078002802D1C1
:1028800002204A4908708DE0FEF7A5FBFF20D830F2
:1028900001F028F8FF20273000F0D4FF45480088D9
:1028A0004549884203DB00204449087010BD434875
:1028B0000078401C41490870084600780A2802DD6B
:1028C00003203A4908706DE0FEF777FB3C4800783A
:1028D000012820D13B4801F005F83B4800780A2840
:1028E00008DA3A4800F0AEFF37480078401C364915
:1028F000087031E034480078142808DA324800784B
:10290000401C31490870002000F09CFF24E00020AA
:102910002D49087020E0FF20D83000F0E3FF2A485E
:1029200000780A2808DA294800F08CFF2648007849
:10293000401C254908700FE023480078142808DA65
:1029400021480078401C20490870002000F07AFFE0
:1029500002E000201C4908701D48008832280CDA6B
:102960001C480078401C1B49087008460078642801
:1029700006DD04200D49087002E0002015490870AA
:1029800010E0FEF728FBFF20D83000F0ABFFFF205F
:10299000273000F057FF0020084908700D490870E3
:1029A00000E000BF00BF00BF80E700005000002033
:1029B0003B0000201A000020540B00008100002082
:1029C0003D000020B20300008300002085020000CB
:1029D0001C0000208200002010B5FEF78FF80020B8
:1029E00001F061FE10BD000010B52648007803001C
:1029F00001F0AEFC0646040E1B384546FEF7EBFA26
:102A000021480078002802D102201E49087037E0D2
:102A1000FEF7D3FAE22000F065FFFF20273000F038
:102A200011FF0320174908702AE0FEF7C6FAE220DA
:102A300000F058FF154800F005FF154800883228BF
:102A40000CDA14480078401C1249087008460078D7
:102A5000642806DD04200B49087002E000200D49BF
:102A600008700DE0FEF7B7FA00200A490870E2206E
:102A700000F038FFFF20273000F0E4FE00E000BF48
:102A800000BF10BD500000203B0000201E050000CC
:102A90001C000020850000207047704770B500249E
:102AA00000260025184800684607760F16488069FA
:102AB0004004050F002E06D0012E0CD0032E0CD0A2
:102AC000042E0FD10BE0A800104A11581048FDF752
:102AD00017FB04460EE00F4C0CE00F4C0AE00124FB
:102AE000E40307E0A800094A11580948FDF708FB6C
:102AF000044600BF00BF044800680006410F20469E
:102B0000C8400446204670BD00400040544A0000C2
:102B1000006CDC020024F4002080000010B50446A4
:102B2000002C0DD0202C0BD0402C09D0602C07D0CD
:102B3000802C05D0A02C03D0C02C01D0E02C00D1DB
:102B400003E0342106A001F05CFC0E4800680E4949
:102B500008400E49401820430A49086010BD000093
:102B60002E2E5C4C69627261726965735C7372636C
:102B70005C637733326C3031305F737973637472B6
:102B80006C2E6300004000401FFF000000005A5AF6
:102B900070B50446394D0120C002844238D040004F
:102BA000844235D00320C002844231D0012040034A
:102BB00084422DD00520C002844229D00320000386
:102BC000844225D00720C002844221D00120800306
:102BD00084421DD00920C002844219D00520000380
:102BE000844215D00B20C002844211D00320400340
:102BF00084420DD00D20C002844209D0072000037A
:102C0000844205D00F20C002844201D0002C00D1A4
:102C100004E0FF211B311AA001F0F3FB0120C002E8
:102C200084420BD11F4800684007400F002805D19F
:102C30001C4880681C4908431A4988601B48008862
:102C40004005400D204317498861084640681649F1
:102C50000F3908431349486001E0681E85B21148E6
:102C600080690121C9030840002801D1002DF4D159
:102C7000002D01D1012070BD0020FCE7FFFF000006
:102C80002E2E5C4C69627261726965735C7372634B
:102C90005C637733326C3031305F73797363747295
:102CA0006C2E63000040004010005A5AC00710000C
:102CB000704700001249134840888005800D124A71
:102CC00010621046006A0322920210430E4A1062FC
:102CD000104640680D4A10430B4A506001E0481E00
:102CE00081B20948006A0122D2031040002801D1B4
:102CF0000029F4D1002901D1012070470020FCE710
:102D0000FFFF0000C00710000040004008005A5AB2
:102D100010B50446002C0DD0202C0BD0402C09D02F
:102D2000602C07D0802C05D0A02C03D0C02C01D063
:102D3000E02C00D103E03E2106A001F062FB0E482A
:102D400000680E4908400E49401820430A490860AF
:102D500010BD00002E2E5C4C696272617269657351
:102D60005C7372635C637733326C3031305F7379DC
:102D7000736374726C2E630000400040E7FF000034
:102D800000005A5A70B50446002C05D0012C03D01F
:102D9000032C01D0042C00D103E04A2108A001F04B
:102DA00030FB104800681049084010494018204383
:102DB0000C490860FFF772FE054600F019F870BD77
:102DC0002E2E5C4C69627261726965735C7372630A
:102DD0005C637733326C3031305F73797363747254
:102DE0006C2E630000400040F8FF000000005A5ABB
:102DF0000149086070470000A000002070B5FE483F
:102E00000078002805D00020FC4908700870FC49B3
:102E10000870F9480078030001F09AFA0C07FDFCED
:102E2000FBFAF9F8F7F6F5F4F3F20A21F548FDF7A5
:102E300098F900224021F448FEF7B3FDF3480078EA
:102E4000002825D1ED480078012804D00120EB4965
:102E50000870FEF70BF901220A210F2000F07AFD1D
:102E600001220F210E2000F075FD01220E210D2000
:102E700000F070FD08210C2000F077FC01220E21EB
:102E80000B2000F067FD08210A2000F06EFCEEE048
:102E9000DE480078062811D1D8480078012804D0EF
:102EA0000120D6490870FEF7E1F8D948008801F002
:102EB000A7FB0421122000F058FCD8E0D34800788A
:102EC00005284DD1D3480078012804D00120D149EC
:102ED0000870FEF7CBF80020C949087001220E21C6
:102EE0000F2000F037FD0C210E2000F03EFC0122E7
:102EF0000A210D2000F02EFD012207210C2000F0F8
:102F000029FD01220A210B2000F024FD0122114697
:102F10000A2000F01FFDC0480078002808D10122D7
:102F20000221112000F016FD0120BB49087007E0C6
:102F300000220221112000F00DFD0020B64908708A
:102F400001221146092000F005FD01220F21102069
:102F500000F000FD01220321092000F0FBFC86E0C7
:102F6000A7480078002804D1FEF780F80120A44982
:102F700008700020A7490870A0490870A748007889
:102F8000401CA6490870084600780F2802DD012081
:102F9000A3490870A14800781E2804DD0020A0493C
:102FA00008709E4908709E480078002804D00128C7
:102FB0000BD0022823D111E09548008801F020FBB6
:102FC0000421122000F0D1FB19E09648008801F09E
:102FD00017FB0121122000F0C8FB10E09249934832
:102FE0000068FDF7C9F80546FDF77AFA84B2204675
:102FF00001F006FB0821122000F0B7FB00BF0BE038
:10300000CFE18EE162E12DE12BE1DFE0DAE09BE050
:103010006EE06CE02DE02BE000BFFDF795FD8448ED
:10302000007801280AD1012211460D2000F092FCFF
:10303000002201210F2000F08DFC18E07C48007870
:1030400002280AD1012211460F2000F083FC002241
:1030500001210D2000F07EFC09E0002201210F205B
:1030600000F078FC002201210D2000F073FC98E1B3
:1030700097E164480078012807D0FDF7F7FF0020AA
:103080005F49087001205F49087001220A210F2062
:1030900000F060FC01220F210E2000F05BFC0122F9
:1030A0000A210D2000F056FC08210C2000F05DFBE9
:1030B00001220E210B2000F04DFC0C210A2000F013
:1030C00054FB55480078002808D000205249087069
:1030D000002240214C48FEF764FC07E001204E49E5
:1030E0000870012240214848FEF75BFC59E158E195
:1030F00044484078012807D0FDF7B8FF0020404938
:10310000087001203F4948704348007800280DD0DE
:1031100000220121112000F01DFC00203E49087012
:10312000002240213848FEF73CFC0CE00122114609
:10313000112000F00FFC01203749087001224021C6
:103140003148FEF72EFC2CE12E488078012807D06C
:10315000FDF78CFF00202A4908700120294988705A
:1031600001220A210F2000F0F5FB01220F210E2081
:1031700000F0F0FB01220A210D2000F0EBFB0921F9
:103180000C2000F0F2FA01220E210B2000F0E2FBED
:103190000C210A2000F0E9FA1F480078002808D026
:1031A00000201D490870002240211748FEF7F9FB56
:1031B00007E0012018490870012240211248FEF75B
:1031C000F0FBEEE000200E490870EAE00D48C07800
:1031D000012807D000200A490870FDF747FF0120A9
:1031E0000849C8700C48007800282CD00022012122
:1031F000112000F0AFFB1DE03B0000203600002056
:1032000034000020290100200001004800000020B7
:103210001A00002035000020370000203300002075
:10322000320000201C0000200000C84224000020C2
:103230003F00002000205C490870002240215B48CC
:10324000FEF7AFFB0CE001221146112000F082FBDB
:10325000012055490870012240215448FEF7A1FB86
:103260009FE09EE052480079012807D00020514994
:103270000870FDF7FBFE01204D49087101220E2167
:103280000F2000F067FB08210E2000F06EFA0122EB
:103290000A210D2000F05EFB012207210C2000F026
:1032A00059FB01220A210B2000F054FB0122114698
:1032B0000A2000F04FFB01220F21102000F04AFBF2
:1032C00001220321092000F045FB6AE038484079DB
:1032D000012806D0FDF7CAFE00203549887101207B
:1032E00048713148007800280DD0002208210920BB
:1032F00000F030FB00202C490870002240212B48B0
:10330000FEF74FFB0CE001220821092000F022FB10
:10331000012025490870012240212448FEF741FB85
:103320003FE023488079012809D000202149087016
:103330001F494871FDF79AFE01201D49887101223D
:103340000A210F2000F006FB01220F210E2000F0C1
:1033500001FB01220E210D2000F0FCFA08210C20B7
:1033600000F003FA01220E210B2000F0F3FA0821ED
:103370000A2000F0FAF90C480078002808D0002252
:103380000121092000F0E6FA00200749087007E053
:1033900001221146092000F0DDFA012002490870DF
:1033A00000BF00BF70BD00003700002000010048D2
:1033B000290100203400002010B5FDF79FFB0120FB
:1033C00001F04CF910BD0000F8B5C84800780300C2
:1033D00000F0BEFF0610041134ABFE10FDF7FBFD3C
:1033E0000020C3490870C3480078002802D1022099
:1033F000BE49087077E1FDF7EEFD0020BC4908707A
:10340000FF20D83000F07EFAFF20273000F01AFAB3
:10341000B9480088B949884203DB0020B8490870E0
:10342000F8BDB7480078401CB549087008460078D8
:10343000142802DD0320AD49087054E1FDF7BDFDFD
:10344000B0480078012828D1AF494868FDF77AF8DC
:103450000646AE4AAE4BFCF7BFFF0446FDF754F8F4
:1034600080B2009000F04EFAA1480078002803DDF9
:10347000FF20273000F0E6F99D480078052802DD9E
:10348000A44800F0DFF99A480078062835DA984811
:103490000078401C964908702FE09B490868FDF7AA
:1034A00051F804469C4A9D4BFCF796FF0646FDF7F3
:1034B0002BF880B2009000F025FA8D4800780028A3
:1034C00003DDFF20273000F0BDF98948007805288A
:1034D00002DD904800F0B6F9854800780A2803DD3F
:1034E0008648BE3800F0AEF9814800780C2804DA2E
:1034F0007F480078401C7E4908708948008832283F
:103500000FDA88480078401C864908700846007821
:10351000642809DD0020764908700420734908708A
:1035200002E000207F490870DDE0FDF754FDFF2038
:10353000D83000F0E7F9FF20273000F083F90020B1
:103540006F490870774908706E480078012818D1D3
:1035500069480088744988420FDA74480078401C32
:103560007249087008460078642823DD05205F4909
:10357000087000206B4908701CE000206B4908703F
:1035800018E05D4800884B21090188420FDA67483E
:103590000078401C6549087008460078642809DDF9
:1035A00005205249087000205E49087002E00020A2
:1035B0005E49087050480088FF21F53188420DDAD5
:1035C0005B4801780078401C594A1070322900E0AD
:1035D00008E006DD01205749087002E00020544948
:1035E000087080E0FDF7E9FC534800780A285DDDAB
:1035F00044480078012828D143494868FCF7A2FFD5
:103600000646424A424BFCF7E7FE0446FCF77CFFC5
:1036100080B2009000F076F935480078002803DD8C
:10362000FF20273000F00EF931480078052802DD30
:10363000384800F007F92E48007806283BDA2C4875
:103640000078401C2A49087035E02F490868FCF7CB
:1036500079FF0446304A314BFCF7BEFE0646FCF7C4
:1036600053FF80B2009000F04DF921480078002807
:1036700003DDFF20273000F0E5F81D48007805281D
:1036800002DD244800F0DEF8194800780A2803DD3E
:103690001A48BE3800F0D6F8154800780C280ADA27
:1036A00013480078401C1249087004E02248007852
:1036B000401C214908701A48008832280FDA19483E
:1036C0000078401C1749087008460078642809DD16
:1036D00000200749087004200449087002E0002017
:1036E0001049087000BF00BF00BF99E650000020DD
:1036F000730000203B0000201A000020DC050000C1
:10370000700000203D0000205800002085EB51B8DB
:103710001EC53F4085020000B81E85EB51383F4072
:103720001C00002071000020280A00007200002008
:1037300075000020410000207400002010B50446F0
:10374000002208210920C006FEF72BF90321802062
:1037500000F028F80921204600F024F80122082171
:103760000920C006FEF71DF910BD70B504460D46D0
:10377000002208210920C006FEF713F90321A0202A
:1037800000F010F8A106080E062100F00BF8042145
:10379000284600F02FF8012208210920C006FEF774
:1037A00000F970BD70B504460D46002600BF1CE050
:1037B00080202040002805D1002201210C48FEF77E
:1037C000F0F804E0012211460948FEF7EAF8002269
:1037D00002210748FEF7E5F8012202210448FEF71E
:1037E000E0F86006040E701CC6B2AE42E0DB70BDAD
:1037F0000001004870B504460D46002600BF1BE0DE
:10380000E007C00F002805D1002201210C48FEF777
:10381000C8F804E0012211460948FEF7C2F8002268
:1038200002210748FEF7BDF8012202210448FEF7F5
:10383000B8F86410701CC6B2AE42E1DB70BD000087
:1038400000010048F0B585B0054600260024002799
:103850000020039002901C48008800F0FBFC1B49EC
:10386000088008460088FCF71FFE014601901848B2
:10387000FCF7BFFC029017490298FCF7BAFC164906
:103880000090FCF779FC0190FCF72AFE80B20390CF
:103890002846FDF759FC07460398874201DA384667
:1038A00000E0039804460D48844200DD04460C48BD
:1038B000FEF7B0F80646A64203D021460848FEF7B8
:1038C00065FA05B0F0BD00001A00002030000020AD
:1038D00000204B460000204100C0A3441E0500000C
:1038E0000018004070B504460548FEF7B7F80546D5
:1038F000A54203D021460248FEF76CFA70BD0000D5
:103900000018004070B504460F480078002801D028
:10391000062000E0032006460C480078012802D16A
:10392000A01B84B205E009480078022801D1A01943
:1039300084B20748FEF792F80546A54203D0214617
:103940000348FEF747FA70BD3D0000203F0000200D
:1039500000180040F8B505460E461746172D13DA35
:103960000A48445D002F03D020463043044602E05D
:103970002046B04304462407240F044844552146FA
:103980002846FFF7F2FE00BFF8BD0000120100203C
:1039900010B5FDF7B3F8002000F060FE10BD000088
:1039A000F8B5C8480078030000F0D2FC06100411F6
:1039B00034ABFE100020C4490870FDF70CFBC3486F
:1039C0000078002802D10220BE49087077E1FDF797
:1039D00002FB0020BC490870FF20D830FFF782FFAF
:1039E000FF202730FFF72EFFB9480088B9498842E9
:1039F00003DB0020B8490870F8BDB7480078401CC8
:103A0000B549087008460078142802DD0320AD4946
:103A1000087054E1FDF7D1FAB0480078012828D1A8
:103A2000AF494869FCF78EFD0446AE4AAE4BFCF741
:103A3000D3FC0646FCF768FD80B20090FFF762FFFA
:103A4000A1480078002803DDFF202730FFF7FAFEA9
:103A50009D480078052802DDA448FFF7F3FE9A4848
:103A60000078062835DA98480078401C9649087096
:103A70002FE09B490869FCF765FD06469C4A9D4B73
:103A8000FCF7AAFC0446FCF73FFD80B20090FFF76C
:103A900039FF8D480078002803DDFF202730FFF72D
:103AA000D1FE89480078052802DD9048FFF7CAFE5C
:103AB000854800780A2803DD8648BE38FFF7C2FE35
:103AC000814800780C2804DA7F480078401C7E4941
:103AD00008708948008832280FDA88480078401C2E
:103AE0008649087008460078642809DD0020764978
:103AF000087004207349087002E000207F490870B4
:103B0000DDE0FDF768FAFF20D830FFF7EBFEFF207D
:103B10002730FFF797FE00206F490870774908703B
:103B20006E480078012818D1694800887449884295
:103B30000FDA74480078401C724908700846007813
:103B4000642823DD05205F49087000206B49087058
:103B50001CE000206B49087018E05D4800885D4952
:103B6000C83988420FDA67480078401C65490870F8
:103B700008460078642809DD0520524908700020B5
:103B80005E49087002E000205E49087050480088D5
:103B9000FF21F53188420DDA5B4801780078401C3E
:103BA000594A1070322900E008E006DD012057492B
:103BB000087002E000205449087000BFFDF7FDF9CD
:103BC000534800780A285DDD44480078012828D150
:103BD00043494869FCF7B6FC0446424A424BFCF7AD
:103BE000FBFB0646FCF790FC80B20090FFF78AFED4
:103BF00035480078002803DDFF202730FFF722FE3C
:103C000031480078052802DD3848FFF71BFE2E48B2
:103C1000007806283BDA2C480078401C2A490870B6
:103C200035E02F490869FCF78DFC0446304A314BDA
:103C3000FCF7D2FB0646FCF767FC80B20090FFF76A
:103C400061FE21480078002803DDFF202730FFF7C0
:103C5000F9FD1D480078052802DD2448FFF7F2FD34
:103C6000194800780A2803DD1A48BE38FFF7EAFD34
:103C7000154800780C280ADA13480078401C1249CD
:103C8000087004E022480078401C214908701A4856
:103C9000008832280FDA19480078401C174908704C
:103CA00008460078642809DD0020074908700420D0
:103CB0000449087002E000201049087000BF00BFEE
:103CC00000BF99E650000020790000203B00002052
:103CD0001A000020DC050000760000203D000020D6
:103CE0005800002085EB51B81EC53F4085020000FA
:103CF000B81E85EB51383F401C00002077000020A3
:103D0000280A0000780000207B00002041000020ED
:103D10007A00002070B50446FEF70EF906462546E7
:103D2000681C002802D0054800782D1800BFFEF757
:103D300003F9801BA842FAD370BD00009C0000204C
:103D40000C4800680C49097840180A4908600020AE
:103D50000CE08100094A5158012905D981005158C8
:103D6000491E8200054B9950411CC8B20728F0DB60
:103D700070470000940000209C00002034010020C7
:103D8000014802490860704700093D00A00000207A
:103D900000B50C4909884805400D0B498969C90AD5
:103DA000C9020143084A9161064949888805800D86
:103DB0001146096A890A890201431162FFF7E0FF8F
:103DC00000BD0000C0071000004000400EB51B48B9
:103DD000006B1B490843194908630846006B1849E2
:103DE00010310843154908630020009001900290AB
:103DF0000820009020200190802002906946092030
:103E0000C006FDF74DFD032000902020019080208A
:103E1000029069460B48FDF743FD01220821092065
:103E2000C006FDF7BEFD012202210648FDF7B9FDDF
:103E3000012211460348FDF7B4FD0EBD00400040CD
:103E400010005A5A0001004810B500F0B1F80A20DD
:103E50000149086010BD00003401002010B5FDF7D5
:103E6000B3F900F01DFA00F06DF87D20C0000149A3
:103E7000486010BD3401002010B500F067FCC82078
:103E80000149886010BD00003401002010B5FDF725
:103E90001FF814200149C86010BD00003401002043
:103EA00010B50C4800780A2802DDFDF7A3F80DE0F4
:103EB00008480078401C07490870FDF78CF8064850
:103EC000FFF710FDFF202730FFF7BCFC64200349FB
:103ED000086110BD3A000020B20300003401002048
:103EE00010B5FEF78BFFFF20F5300149486110BD8A
:103EF000340100207D2000010149886170470000E5
:103F000034010020002000BF05E0012182000C4B9D
:103F10009950411CC8B20728F7DB0A21084A1160F2
:103F20007D21C9005160C82191601421D1606421B4
:103F30001161C82151617D21090191617047000023
:103F4000340100207FB50020009001900290039082
:103F50000026002500240DE00A2060431049085A7D
:103F600061006A46505260006946085A401985B29D
:103F7000601CC4B2082CEFDBEE100A480680014634
:103F8000088800F081FA084908607F21C9050648C1
:103F90000068FCF707FB02D80020034908607FBDDA
:103FA000A40000201E00002024000020704770475D
:103FB00010B52048007802210840002838D00020A1
:103FC000FCF76CFD1C4909780A2251431B4A8818EA
:103FD000FCF7F2FB184909780A225143174A89185D
:103FE000881CFCF7F3FB144909780A225143134A51
:103FF0008918081DFCF7F4FB0F4909780A22514380
:104000000E4A8918881DFCF7F5FB0B480078401C08
:10401000094908700A2108480078FCF787F8C8B2F7
:10402000054908700020034908700120FCF736FD9F
:1040300010BD00002C0000202D000020A400002056
:1040400000B593B03548006B3549084333490863E0
:104050000846006B3249103108433049086308466E
:10406000806B2F490F3908432C4988630920C0060B
:10407000C0691021884310300921C906C86108466B
:10408000C0692021884320300921C906C86108463B
:10409000C0694021884340300921C906C8612148D0
:1040A000C0690821884308301E49C8614C21684610
:1040B000FCF757F800200090082001904001029082
:1040C0000421049106200390052106910720059004
:1040D0000621089107900A210A9108200990684654
:1040E000FCF7DEFBFCF758FB01210220FCF79EFBEE
:1040F0000C20002809DB00BF00BFC206D20E012140
:104100009140094A116000BF00BF00BFFCF74AFBA5
:104110000120FCF7C3FC13B000BD000000400040CC
:1041200010005A5A0001004800E100E00EB50020DE
:10413000009001900290FDF71FFC1F48006B1F4983
:1041400008431D4908630846006B1C4910310843A9
:10415000194908638020009011200190802002906E
:1041600069461748FDF79CFB4020009020200190F5
:104170008020029069461248FDF792FB03200090D0
:10418000202001908020029069460920C006FDF79A
:1041900087FB002240210A48FDF703FC0022012191
:1041A0000920C006FDF7FDFB002202210920C00600
:1041B000FDF7F7FB0EBD00000040004010005A5A0A
:1041C0000001004870477047F0B589B005460026E9
:1041D00000271D480890002007900690002400BF8B
:1041E00013E06000295A0898814202DA6000285AD8
:1041F00008906000285AB84201DD60002F5A600024
:10420000285A801986B2601CC4B20A2CE9DB0898CF
:10421000C019301A4003000C07900798FCF744F9C6
:104220000190FCF78FF9094A094B03910290FCF7C2
:10423000D3F805910490FCF799F906900698FCF7DD
:104240004FF980B209B0F0BDFFFF0000EE7C3F35B2
:104250005EBA024070B504460F48007840000F492E
:104260000C5205210C480078401CFBF75FFFC8B2D8
:10427000094908700025002005E04100074A515A0D
:104280004D19411CC8B20528F7DB05212846FBF76C
:1042900037FF80B270BD00002E0000200801002012
:1042A00030B58BB0002409E00A206043194940185A
:1042B0004088610006AA5052601CC4B20A2CF3DB8D
:1042C000002409E00A2060431249401880886100F8
:1042D00001AA5052601CC4B20A2CF3DB01A8FFF7FC
:1042E00073FF05461421FBF721FF0B4908800846A0
:1042F00000880A2801DC0020088006A8FFF764FF78
:1043000006490880084600880A2801DC0020088049
:104310000BB030BDA4000020180000201A000020BF
:1043200070472021020C01D010211046020A01D052
:1043300010460839020901D01046091F820801D031
:104340001046891E420801D0881E7047081A70471F
:1043500030B47446641E2578641CAB4204D3635D9C
:104360005B00E31830BC18471D46F8E710B500287D
:1043700019DB1A4A03231B02D21883089B00D25868
:104380008307DC0EFF23A3409A438B071B0E840791
:10439000E40EA3401A43114B032424021B19840882
:1043A000A4001A5118E00E4A03071B0F083B9B0894
:1043B0009B00D2588307DC0EFF23A3409A438B0750
:1043C0001B0E8407E40EA3401A43054B0407240F79
:1043D000083CA408A4001A5110BD000000E100E050
:1043E0001CED00E002E008C8121F08C1002AFAD143
:1043F00070477047002001E001C1121F002AFBD165
:104400007047704710B50020FEF7BCFC0120C002C9
:10441000FEF7BEFB0020FEF781FB1020FEF778FCC4
:104420001348406B13490843114948631248FDF78C
:104430001BFFFFF77BFEFFF703FEFEF757F9FFF7C1
:1044400061FDFCF725FE0D48FFF74CFA0C48FFF71D
:10445000F9F9FFF7BBFCFDF73FFF7F20FDF7B2FE48
:10446000FCF7D4FE0020FCF761FF0649087010BD80
:104470000040004010005A5A006CDC02B2030000F9
:104480008502000001000020F1B582B00298FCF71F
:1044900013F80446064A074BFBF79EFF0022064B23
:1044A00001910090FBF7E4FE0646FCF75FF8FEBDC5
:1044B000EC51B81E85EBA1BF00F0574010B5044683
:1044C000012211460B20FFF745FA2300FFF740FFBA
:1044D0000A0613202D3A4754616E7B88FEF7F4F8E4
:1044E00001220F210A20FFF735FA01220A210B20B1
:1044F000FFF730FA81E0FEF7E7F8012206210A20F3
:10450000FFF728FA00220E210B20FFF723FA74E0B0
:10451000FEF7DAF801220D210A20FFF71BFA01222B
:1045200006210B20FFF716FA67E0FEF7CDF801220F
:104530000F210A20FFF70EFA012204210B20FFF7BA
:1045400009FA5AE0FEF7C0F8012206210A20FFF717
:1045500001FA01220C210B20FFF7FCF94DE0FEF7D8
:10456000B3F801220B210A20FFF7F4F901220C21F4
:104570000B20FFF7EFF940E0FEF7A6F801220B2130
:104580000A20FFF7E7F901220E210B20FFF7E2F9DD
:1045900033E0FEF799F801220E210A20FFF7DAF93D
:1045A00000220E210B20FFF7D5F926E0FEF78CF84C
:1045B00001220F210A20FFF7CDF901220E210B2045
:1045C000FFF7C8F919E0FEF77FF801220F210A2052
:1045D000FFF7C0F901220C210B20FFF7BBF90CE01B
:1045E000FEF772F801220F210A20FFF7B3F901222A
:1045F0000A210B20FFF7AEF900BF00BF012010BD5C
:10460000F8B5054600BF00BF00BF00BF64212846C3
:10461000FBF78CFDC4B264216143681A0A21FBF7E1
:1046200085FDC7B20A212046FBF780FDC6B20A20ED
:104630007043201AC0B20090304600F0F5F80098A0
:1046400000F078F93846FFF739FFF8BD10B50421BE
:104650000148FDF711F910BD000100483EB50446C0
:1046600000200090019002900420009020200190F2
:1046700069460848FDF714F9012C05D101220421EF
:104680000448FDF78EF904E0002204210148FDF7FB
:1046900088F93EBD0001004810B504210920C0067C
:1046A000FDF7EAF810BD3EB50446002000900190E9
:1046B0000290042000902020019069460920C00645
:1046C000FDF7EEF8012C06D1012204210920C006D5
:1046D000FDF767F905E0002204210920C006FDF777
:1046E00060F93EBDFFF78EFE2DE0FDF763FD00246F
:1046F00026E0A0001449085801281FD12300FFF725
:1047000027FE0705080B0E1114171A00FFF79CFB74
:1047100012E0FFF7A3FB0FE0FFF7AEFB0CE0FFF7A3
:10472000B5FB09E0FFF7BCFB06E0FFF7D9FB03E0B0
:10473000FFF7E0FB00E000BF00BF03E0601CC4B275
:10474000072CD6DB00BFD0E73401002010B532487B
:104750000078002800D010BDFCF7FCFE2F4908703F
:10476000084600784978884200D1F4E72B48007861
:10477000002824D12A480078401CC0B2284908707B
:10478000052800DAE7E7002025490870234840782B
:104790000300FFF7DDFD0C071209120D0E120A12BD
:1047A000080B0C1200BF09E000BF00BF00BF00BF34
:1047B00000BF02201B49087000E000BF25E0174839
:1047C0004078002803D117480078164948701348EC
:1047D00000780300FFF7BCFD0C071709170D111730
:1047E0000A17080B0C1700BF0EE000BF00BF00BF88
:1047F00000BF01200B49087006E00120094908703C
:104800000549087000E000BF00BF04480078034974
:10481000487000BF9FE70000420000203B000020DE
:104820004D0000205000002010B504462300FFF783
:104830008FFD0A06091623303D4A5764717EFDF745
:104840002BFF74E0FDF728FF012206210E20FFF761
:1048500081F800220E210F20FFF77CF867E0FDF7BA
:104860001BFF01220D210E20FFF774F80122062103
:104870000F20FFF76FF85AE0FDF70EFF01220F211E
:104880000E20FFF767F8012204210F20FFF762F8DE
:104890004DE0FDF701FF012206210E20FFF75AF837
:1048A00001220C210F20FFF755F840E0FDF7F4FE40
:1048B00001220B210E20FFF74DF801220C210F20C1
:1048C000FFF748F833E0FDF7E7FE01220B210E2049
:1048D000FFF740F801220E210F20FFF73BF826E0FA
:1048E000FDF7DAFE01220E210846FFF733F8002219
:1048F0000E210F20FFF72EF819E0FDF7CDFE012263
:104900000F210E20FFF726F801220E210F20FFF7BE
:1049100021F80CE0FDF7C0FE01220F210E20FFF769
:1049200019F801220C210F20FFF714F800BF00BF77
:10493000012010BD10B504462300FFF709FD0A064B
:1049400013202D3A4754616E7B88FDF7B1FE01229A
:104950000F210C20FEF7FEFF01220A210D20FEF799
:10496000F9FF74E0FDF7A4FE012206210C20FEF7FA
:10497000F1FF00220E210D20FEF7ECFF67E0FDF7AE
:1049800097FE01220D210C20FEF7E4FF01220621F3
:104990000D20FEF7DFFF5AE0FDF78AFE01220F210E
:1049A0000C20FEF7D7FF012204210D20FEF7D2FFD5
:1049B0004DE0FDF77DFE012206210C20FEF7CAFF27
:1049C00001220C210D20FEF7C5FF40E0FDF770FE2F
:1049D00001220B210C20FEF7BDFF01220C210D202E
:1049E000FEF7B8FF33E0FDF763FE01220B210C2038
:1049F000FEF7B0FF01220E210D20FEF7ABFF26E0EF
:104A0000FDF756FE01220E210C20FEF7A3FF002227
:104A10000E210D20FEF79EFF19E0FDF749FE012251
:104A20000F210C20FEF796FF01220E210D20FEF72C
:104A300091FF0CE0FDF73CFE01220F210C20FEF758
:104A400089FF01220C210D20FEF784FF00BF00BF6B
:104A5000012010BD10000000010000000200000055
:104A60000300000004000000050000000600000034
:104A70000700000008000000090000000A00000014
:104A80000B0000000C0000000D0000000E000000F4
:104A90000F000000B44A000000000020A400000045
:104AA000E4430000584B0000A4000020DC0200009A
:104AB000F4430000000000000000000000000000BF
:104AC00000000100000000000000000000000000E5
:104AD00000000000000000000000000000000000D6
:104AE00000000000000000000000000000000000C6
:104AF00000000000000000000000000000000000B6
:104B00000000000002000000640000000000684196
:104B10006666E6419A996941CDCCEC41CDCC6C41B9
:104B20003333EB41000000000000000000000000F3
:104B30000000000000000000000000000000000075
:104B40000000000000000000000000000400000061
:084B50000100000000093D0016
:04000005000000C136
:00000001FF
