:020000040000FA
:1000000018030020D900000081220000CD1E00004E
:1000100000000000000000000000000000000000E0
:100020000000000000000000000000007B24000031
:100030000000000000000000A92300005D2900006E
:10004000CD2E00007F220000AB230000251700000A
:10005000912600005518000057180000000000000D
:100060000000000000000000000000000000000090
:1000700009070000650C0000912D0000932D000081
:100080005F1A000000000000000000007D22000058
:10009000811000008310000085100000D11E0000B8
:1000A000000000007924000000000000112B000077
:1000B000132B00000000000000000000B912000037
:1000C0000448854600F0D6FA004800478D3100000C
:1000D000C046C04618030020064908688546064801
:1000E000804706480047FEE7FEE7FEE7FEE7FEE73B
:1000F000FEE7000000000000AD290000C100000084
:1001000030B50B46014600202022012409E00D46AF
:10011000D5409D4205D31D469540491B2546954037
:1001200040191546521E002DF1DC30BD70B500247B
:100130002546002801DA01244042002901DA012580
:100140004942FFF7DDFFAC4200D04042002C00D016
:10015000494270BDD2B201E00270401C491EFBD280
:1001600070470022F6E710B513460A4604461946C2
:10017000FFF7F0FF204610BDF0B50746084658408F
:1001800087B0C00F049048000E4659004008490847
:10019000BC1A884105D2384631461E4617460B46E2
:1001A00002465800400810434DD0300D03904005E2
:1001B0005900400D490D0590401A0290402873DA0D
:1001C00018030121000B09050843019004980092CF
:1001D000002806D01146019A494200209041009122
:1001E0000190029840210A1A0199009800F06EF9D6
:1001F00005460C466B4607CB00F089F9C0197141E2
:10020000039A0E0D0023D71756401A467A4016431C
:1002100044D0049A002A2DD0029A012A039A15DCB0
:100220001205C01A914101263605001C7141D20FFA
:10023000059ED2070093019202962A46234600F0BB
:10024000C7F907B0F0BD38463146FAE71605234A2C
:100250000F46B218C01AB74101210905001C4F41D1
:1002600000187F41114618187941E20F10436D19AB
:10027000644113E0E2076D0815436408C2071443A4
:10028000039A01261205C01A91413605001C7141DE
:10029000CE07400830434908C01851412A4623463A
:1002A00000F089F9CDE7FFE7049801224000C1176B
:1002B000121A00238B4104983146C417381AA14101
:1002C000EEE730B40124E407634030BC54E730B4B7
:1002D0000124E407614030BC4EE700000000E0FF6D
:1002E000F0B51FB488B00B990998002448400999CB
:1002F000C00F490049080991C0070B9900904900B7
:1003000049080B9109990898A64608431CD00B99F7
:100310000A98084318D0099801244000420D48006B
:10032000410D099824050003000B204309900B9808
:100330000003000B20430B9050181C49401800226A
:1003400001901446104605E0002001460DB0F0BDB6
:10035000032801DA034600E003239C46C11A0AAED3
:100360000AE05F0008ADED5B4F00F75B7D430027BF
:10037000AA187C41491C5B1E6145F2DD410004ABBB
:100380005A522104120C0A43240C401C0828DFDBBB
:10039000019802900099704601910090059B049A83
:1003A0000799069800F014F9D0E700000DFCFFFF54
:1003B00010B500229623114600F0C4F810BD0000CD
:1003C0000EB5C217C10F5040CA0740180021054B97
:1003D0000293019200910A460B4600F0F9F803B02F
:1003E00000BD000033040000C20F410040020123A1
:1003F000400ADB05D207090EC0187F2901DA002068
:100400007047962903DC9623591AC84001E09639B3
:100410008840002AF4D04042704741004002012247
:10042000400AD205090E80187F2901DA00207047A2
:10043000962903DC9622511AC840704796398840A5
:100440007047C20FD207400040080BD0C10D0723F0
:10045000DB01C91840020905400A1143C2084007E0
:1004600011437047002001467047CB0FDB0749005E
:1004700010B5490802460A4307D00A0D07240903AC
:10048000E401090B121B002A01DC002010BDC90089
:10049000440F0C43C100E018D205801800F04AF860
:1004A00010BD00000122D207002800DB101A00292D
:1004B00000DB511A814270470122D207002800DB7D
:1004C000101A002900DB511A8842704710B5202A03
:1004D00004DB0146203A9140002010BD91402023CA
:1004E0009C1A0346E3401943904010BD10B5202AE2
:1004F00004DB0846203AD040002110BD0B46D34013
:10050000D0402024A21A91400843194610BD10B5CE
:10051000202A06DBCB170846203A1041C1170B43AF
:1005200006E00B461341D0402024A21A9140084314
:10053000194610BD002904DA401C490001D14008C9
:100540004000704770B40024050C05D1102400044D
:1005500002D1002921D01124050E01D10002083456
:10056000050F01D10001241D850F01D18000A41CBD
:10057000002801DB4000641C002908D020252E1B28
:100580000D46F540A14000D0012129430843010652
:100590001B1B000ADB1D02D5002070BC7047DB0569
:1005A000181880180029F8DA401C4900F5D170BCF1
:1005B00040084000704710B5002B08DA0024401CAA
:1005C000614192185B411A4301D14008400010BDBF
:1005D000F0B51FB482B005460C0003D0084602F007
:1005E00076FC02E002F073FC2030024600902146C7
:1005F0002846FFF76BFF049B059A04460F461843F5
:100600001143084314D0184610431BD000984021D2
:100610000A1A18460599FFF769FF05460E46009A23
:1006200005990498FFF752FF084305D0012004E024
:100630002046394607B0F0BD0020C11705430E43E0
:100640002C43374300990E986305401A7905E40A54
:1006500000220C43FD0A0A3002D500200146E9E7DA
:100660000105101969410C9C0D9D00196941FFF7A6
:10067000A2FFDFE7064C0125064E05E0E36807CC44
:100680002B430C3C98471034B442F7D3FFF71CFDC2
:1006900004330000243300000020014988637047C0
:1006A00040000040012080070068012108438907BD
:1006B0000860012070470000002800D170470249FF
:1006C0000968018000BFF9E740000040002800D120
:1006D000704702494968018000BFF9E740000040C7
:1006E000002800D1704702498968018000BFF9E7FE
:1006F00040000040002800D170470249C9680180CD
:1007000000BFF9E7400000400648C06B02210840E6
:10071000002803D00348C06B03490870002001493A
:1007200088637047400000402400002070B50446F4
:100730000D46002D01D0012D00D103E0EE210EA0C9
:1007400002F035FC14482040002802D1002C00D0D3
:1007500003E0EF2108A002F02AFC002D05D00F488D
:10076000406B20430D49486304E00C48406BA043B4
:100770000A49486370BD00002E2E5C4C69627261AC
:10078000726965735C7372635C637733326C3031AA
:10079000305F6164632E6300F0FF000040000040A2
:1007A00010B504462068002808D02068102805D01D
:1007B0002068202802D02068302800D103E05D2185
:1007C0006CA002F0F4FB7348806B734908437149D5
:1007D00088632168A068084361680843012189078C
:1007E0000968FF22F9329143084301218907086013
:1007F0000846C06A00090001217C0907090F084367
:1008000001218907C8620846C06AF0218843A169AE
:100810000901F0221140084301218907C8620846F6
:10082000C06A11018843216A09021201114008437C
:1008300001218907C8620846C06A11018843A16A7C
:10084000090312011140084301218907C8620846C3
:10085000C06A11018843218E090412011140084326
:1008600001218907C8620846C06A11018843218FA7
:10087000090512011140084301218907C862084691
:10088000C06A110188434021095D09061201114027
:10089000084301218907C8620846C06A00010009AF
:1008A0004821095D0907090F090708430121890744
:1008B000C8620846806A00090001217B0907090F08
:1008C00008430121890788620846806AF02188432D
:1008D00061690901F02211400843012189078862FA
:1008E0000846806A11018843E1690902120111403A
:1008F00008430121890788620846806A11018843FC
:10090000616A0903120111400843012189078862C5
:100910000846806A11018843A18D09041201114023
:1009200008430121890788620846806A11018843CB
:10093000A18E09051201114008430121890788622F
:100940000846806A11018843A18F090612011140EF
:1009500008430121890788620846806A000100096E
:10096000616C0907090F090708430121890788629B
:1009700010BD00002E2E5C4C696272617269657355
:100980005C7372635C637733326C3031305F616407
:10099000632E63000040004001005A5A10B504461F
:1009A000002C01D0012C00D104E0FF210B310BA061
:1009B00002F0FDFA002C07D0012080078068012199
:1009C00008438907886007E00120800780684008A5
:1009D000400001218907886010BD00002E2E5C4C6C
:1009E00069627261726965735C7372635C637733A9
:1009F000326C3031305F6164632E630010B5324871
:100A00000078002806D001280FD0022829D003281A
:100A100057D13EE0822001F057FF00F055FC002046
:100A20002A4908702A4908704BE02A480068FFF7F5
:100A3000F4FCC4B2204602F009FB2749088082205A
:100A400001F042FF00F040FC24480078002807D164
:100A500002201D49087000201C4908701C490870BC
:100A60002FE000F02BFC4B20C00001F02DFF1C48B4
:100A700000881949098888420ADD144801780078FD
:100A8000401C124A10701E2902DD03200E49087016
:100A900017E000F019FC12480088124988420FDA6A
:100AA0000B4801780078401C094A10701E2907DDA8
:100AB000022005490870002011460870034908709B
:100AC00000BF00BF10BD00006E00002074000020B9
:100AD0007500002020000020760000206500002026
:100AE00016000020E204000010B50446002C01D0DE
:100AF000012C00D104E0FF215B3106A002F057FA7F
:100B00000D48006A40084000E107C90F08430A4940
:100B1000086210BD2E2E5C4C696272617269657349
:100B20005C7372635C637733326C3031305F617455
:100B3000696D2E63000000000014004010B50446EB
:100B4000002C01D0012C00D104E0FF21673107A067
:100B500002F02DFA0E48006A10218843210110226C
:100B6000114008430A49086210BD00002E2E5C4C5B
:100B700069627261726965735C7372635C63773317
:100B8000326C3031305F6174696D2E63000000009B
:100B90000014004010B50446002C01D0012C00D1F7
:100BA00004E0FF217F3108A002F001FA0F48006A3B
:100BB0000121090388432103012212031140084344
:100BC0000A49086210BD00002E2E5C4C69627261F9
:100BD000726965735C7372635C637733326C303156
:100BE000305F6174696D2E630000000000140040E6
:100BF0000449096849084900C207D20F1143014A54
:100C0000116070470014004010B50446002C01D05C
:100C1000012C00D104E0FF21D63108A002F0C7F971
:100C20000F4840680121C9038843E1030122D20330
:100C3000114008430A49486010BD00002E2E5C4C4C
:100C400069627261726965735C7372635C63773346
:100C5000326C3031305F6174696D2E6300000000CA
:100C6000401400407047000010B50446A0680028FA
:100C700002D0A068102800D103E0282123A002F0B0
:100C800096F9E068082802D0E068002800D103E067
:100C900029211EA002F08BF96068002808D0606846
:100CA000202805D06068402802D06068602800D104
:100CB00003E02A2115A002F07AF91D492069884233
:100CC00000D803E02B2111A002F071F91948806BC4
:100CD0002021084317498863E168A0680843217808
:100CE000002901D0802100E0002108436168084309
:100CF00011490968F822914308430F4908602069A7
:100D000088626069C862A069086310BD2E2E5C4CC1
:100D100069627261726965735C7372635C63773375
:100D2000326C3031305F6174696D2E6300000000F9
:100D3000FFFF0000004000400014004010B50446D2
:100D40002068002802D02068012800D103E0F421A7
:100D500030A002F02CF960680F2800D803E0F521DC
:100D60002CA002F024F9A068012802D0A068002875
:100D700000D103E0F62127A002F019F9607B0028DA
:100D800002D0607B012800D103E0F72121A002F00E
:100D90000EF9294880698008800027498861084643
:100DA000806904218843A168890004221140084316
:100DB000214988610846806908218843617BC90010
:100DC0000822114008431C49886108468069702147
:100DD00088436168090170221140084316498861FF
:100DE00008468069891388436168C908090401229B
:100DF000120411400843104988610846006A042122
:100E00008843A17B89000422114008430A490862F3
:100E100010BD00002E2E5C4C6962726172696573B0
:100E20005C7372635C637733326C3031305F617452
:100E3000696D2E63000000000014004010B50446E8
:100E40002068002802D02068012800D104E0FF219A
:100E5000063134A002F0ABF860680F2800D804E037
:100E6000FF2107312FA002F0A2F8A068012802D0CC
:100E7000A068002800D104E0FF21083129A002F079
:100E800096F8607B002802D0607B012800D104E046
:100E9000FF21093123A002F08AF82B488069032141
:100EA00009028843284988610846806909158843F2
:100EB000A1688902012292021140084322498861F7
:100EC00008468069C9148843617BC90252001140F9
:100ED00008431D4988610846806907210903884342
:100EE000616809030722120311400843164988610B
:100EF00008468069012109068843A188C9080906B6
:100F000001221206114008430F4988610846006A11
:100F100040218843A17B89014022114008430A49AE
:100F2000086210BD2E2E5C4C696272617269657335
:100F30005C7372635C637733326C3031305F617441
:100F4000696D2E63000000000014004010B50446D7
:100F50002068002802D02068012800D104E0FF2189
:100F6000263134A002F023F860680F2800D804E08E
:100F7000FF2127312FA002F01AF8A068012802D023
:100F8000A068002800D104E0FF21283129A002F048
:100F90000EF8607B002802D0607B012800D104E0BD
:100FA000FF21293123A002F002F82B48C069032158
:100FB000090288432849C8610846C0690915884361
:100FC000A168890201229202114008432249C861A6
:100FD0000846C069C9148843617BC90252001140A8
:100FE00008431D49C8610846C069072109038843B1
:100FF0006168090307221203114008431649C861BA
:101000000846C069012109068843A188C908090664
:1010100001221206114008430F49C8610846006AC0
:1010200009148843A17B89039212114008430A499D
:10103000086210BD2E2E5C4C696272617269657324
:101040005C7372635C637733326C3031305F617430
:10105000696D2E63000000000014004001494863E0
:101060007047000000140040014988637047000089
:10107000001400400149086070470000401400401F
:10108000704770477047000010B554480078012839
:1010900025D153480188534A00201056C822504396
:1010A00008184F490880084600884F49884207DBE6
:1010B00008464B4908800020C0434A49087009E0AF
:1010C00047480088642805DC6420454908800120E1
:1010D0004449087042490888FFF7C6FF0DE03F48C1
:1010E0000078022803D14048FFF7BEFF05E03B48E7
:1010F0000078002801D1FFF7B7FF38484078012871
:1011000025D137484188374A01201056C82250431C
:10111000081833494880084640883349884207DB2D
:1011200008462F4948800020C0432E49487009E0F6
:101130002B484088642805DC642029494880012028
:101140002849487026494888FFF794FF0DE0234856
:101150004078022803D12448FFF78CFF05E01F48A0
:101160004078002801D1FFF785FF1C4880780128CE
:1011700025D11B4881881B4A02201056C8225043A3
:10118000081817498880084680881749884207DB75
:101190000846134988800020C0431249887009E03E
:1011A0000F488088642805DC64200D498880012070
:1011B0000C4988700A498888FFF750FF0DE00748FE
:1011C0008078022803D10848FFF748FF05E003486C
:1011D0008078002801D1FFF741FF10BD28000020D2
:1011E0002C00002032000020B80B000010B500F0E9
:1011F000F7FD044680212A4800F028FC012800D190
:1012000000E000202749087008460078002830D107
:101210002548007800283BD124480078002804D0D5
:10122000012808D0022823D10EE001201F490870B0
:101230001F4804601CE01E480068201A0A2802D3D8
:1012400002201A49087013E019480068201A194949
:1012500088420CD300F0CEFD012013490870002015
:10126000124908701249086001200E49087000BF39
:101270000EE00E480078022805D10B4800780028BF
:1012800001D100F0C9FD0020084908700649087026
:101290008021034800F0DAFB0249087010BD00000D
:1012A000000100480B000020100000200800002072
:1012B0000C000020B80B000070470000022001491C
:1012C000C8617047400000480220014988617047AA
:1012D0004000004810B50E480078030001F00EFEF3
:1012E00005040A0D10131600FFF7EEFF822001F02F
:1012F000EBFA0BE001F072FA08E0FFF77FFB05E084
:1013000001F0CEFE02E001F051F800BF00BF10BDB9
:1013100009000020F0B589B00546002600271D48C9
:101320000890002007900690002400BF13E06000A2
:10133000295A0898814202DA6000285A0890600011
:10134000285AB84201DD60002F5A6000285A8019DF
:1013500086B2601CC4B20A2CE9DB0898C019301AA6
:101360004003000C07900798FFF722F80190FFF761
:1013700068F8094A094B03910290FEF7B1FF059105
:101380000490FFF772F806900698FFF746F880B2CF
:1013900009B0F0BDFFFF0000333333333333E33F95
:1013A00010B586B0002408E0E0000B494018C08862
:1013B000610001AA5052601CC4B20A2CF4DB01A8DF
:1013C000FFF7A8FF05490880084600880A2801DAC7
:1013D0000020088006B010BD9C0000201A000020EC
:1013E00070B54448006B444908434903086300262C
:1013F0001F20C0020568E843002801D001200643F1
:101400001F20C0024068C043002801D002200643CC
:101410007D2040020468E043002801D004200643F8
:101420007D2040024068C043002801D008200643C8
:10143000082E1ED006DC002E0BD0022E0AD0032E62
:1014400054D10FE00C2E23D00E2E28D00F2E4DD1CC
:1014500034E000BF0120294908601F20C00200F0CD
:10146000DBF843E0254805601F20C00200F0DEF8ED
:101470003CE0224805601F20C00200F0D7F87D2024
:10148000400200F0C9F81F20C00200F0A1F82DE0D2
:101490001A4804607D20400200F0C8F826E0174892
:1014A00004607D20400200F0C1F81F20C00200F05F
:1014B000B3F87D20400200F08BF817E0A5420AD96E
:1014C0000E4805601F20C00200F0B0F87D204002E9
:1014D00000F07EF809E0094804607D20400200F039
:1014E000A5F81F20C00200F073F800BF00BF00F095
:1014F00053F870BD0040004002005A5A800000209E
:1015000001464800014A105A7047000008010020B7
:1015100070B504460D4668001A49085AA0422FD0FB
:1015200068000C521848008880001849096846185D
:10153000310B01208840164908431649886000BFD6
:101540001448406A202108400028F9D11048401C66
:101550001049086028042043306000BF0D48406AED
:10156000202108400028F9D109480A49086088600C
:1015700005480088401C0449088000F00DF800BFB1
:1015800070BD0000080100208800002084000020B9
:1015900000005A5A0020024010B50B4800888028ED
:1015A00011DB0A4804681F21C9028C4202D17D2147
:1015B000490201E01F21C902084600F05DF82046FB
:1015C00000F006F800BF10BD880000208400002055
:1015D000020B012191400E4A11430E4A916000BF57
:1015E0000C49496A202211400029F9D10849891C77
:1015F000084A11600021016000BF0649496A2022A3
:1016000011400029F9D10249024A116091607047E6
:1016100000005A5A0020024010B504462046FFF749
:10162000D7FF204600F028F810BD000010B5014695
:101630000E4A116001220E4B1A8011E00C4A1288EA
:1016400092008858C243002A04D0030C5B00094C66
:10165000E05200E008E0064A1288521C044B1A804F
:10166000034A1288802AE9DB00BF10BD84000020F5
:101670008800002008010020020B01219140234A2C
:101680001143234A916000BF2149496A2022114039
:101690000029F9D11D49491C1D4A116001211D4A2B
:1016A00011801AE01B490988491E0904194A128849
:1016B000521E5200184B9A5A1143164A1288920031
:1016C000815000BF1249496A202211400029F9D1F6
:1016D00010490988491C0F4A11800E4909880529BB
:1016E000E0D90E490968491C0C4A1160016000BF2D
:1016F0000749496A202211400029F9D10349044AC7
:1017000011609160064908607047000000005A5A55
:1017100000200240880000200801002080000020F6
:10172000840000207047000010B53C480078002875
:1017300009D03B4801780078401C394A10701E29B6
:1017400004DD062010BD00203549087035493648B3
:101750000068FEF7B1FE01D80120F3E73348407876
:10176000012807D1324930480068FEF7A5FE01D2B2
:101770000120E7E72F480088642801DC0420E1E726
:101780002C4800887D210901884209DD2A4800781B
:10179000401CC0B22849087008280ADB0220D1E7A3
:1017A00025480078002804DD23480078401E22499F
:1017B000087022480088AF218900884209DD20484E
:1017C0000078401CC0B21E49087008280ADB0320BC
:1017D000B8E71B480078002804DD19480078401E4F
:1017E0001749087011480078052800D1AAE7154864
:1017F0000078002810D114480078052807DD134828
:1018000000781349087001200E49087004E00E4862
:101810000078401C0C490870002093E72500002048
:10182000690000200000B442200000206500002074
:101830000000964216000020670000201A000020D9
:10184000680000206B0000206A0000200A000020D1
:1018500009000020704770473D48006B3D49084330
:101860003B4908630846006B3A4910390843384938
:1018700008630846806B3749084335498863364812
:10188000C069202188433449C86108460068202186
:1018900088433149086008464068202188432E4922
:1018A00048600846806907210905884303214905E6
:1018B0004018294988610846C0690421884326499F
:1018C000C861084600680421884323490860084627
:1018D0004068042188432049486008468069072100
:1018E0000902884340181C4988610920C006C06964
:1018F000400840000921C906C86108460068400840
:1019000040000860084640684008400048600846BB
:101910008069C008C000C01D88610F48C0691021DF
:1019200088430D49C86108460068102188430A4968
:101930000860084640681021884307494860084607
:10194000806907210904884340180349886170476A
:101950000040004020005A5A000100481722D206D9
:101960008218002A04D0FF3A013A002A0FD106E07B
:101970002E4A126B2E4B1A432C4B1A6308E02B4A4B
:10198000126B2B4B10331A43284B1A6300E000BF35
:1019900000BF4A68002A04D1C2690B681A43C261B9
:1019A00042E0C2690B689A43C26110234A681A4038
:1019B000102A29D102680B681A43026002690B6879
:1019C0009A4302614A68112A03D102690B681A43DB
:1019D0000261426A0B689A434262826A0B689A43C8
:1019E000826281238A681A40812A03D1426A0B6885
:1019F0001A43426282238A681A40822A14D1826A78
:101A00000B681A4382620FE002680B689A43026017
:101A10004A68202A04D142680B689A43426003E076
:101A200042680B681A434260704700000040004063
:101A300010005A5A034880680349084301498860E6
:101A4000704700000040004001005A5A0246106DE5
:101A50000840002801D0012070470020FCE77047B3
:101A600070B504460D460D48844200D104E0FF21C4
:101A7000E3310BA001F09BFA002D01D0012D00D124
:101A800004E0FF21E43106A001F091FA206840084B
:101A90004000E907C90F0843206070BD00180040EE
:101AA0002E2E5C4C69627261726965735C7372633D
:101AB0005C637733326C3031305F6774696D2E63ED
:101AC0000000000010B504460548844200D103E040
:101AD000044905A001F06BFAA06B80B210BD0000B4
:101AE000001800404B0200002E2E5C4C69627261AF
:101AF000726965735C7372635C637733326C303127
:101B0000305F6774696D2E630000000070B5044695
:101B10000D460D48844200D103E0C7210BA001F01F
:101B200046FA002D01D0012D00D103E0C82107A005
:101B300001F03DFA206A102188432901102211404A
:101B40000843206270BD0000001800402E2E5C4C3F
:101B500069627261726965735C7372635C63773327
:101B6000326C3031305F6774696D2E6300000000A5
:101B700070B504460D463848844200D103E08B21FD
:101B800036A001F014FA68680F2803D868680A289C
:101B900000D003E08C2131A001F009FAA8680128E7
:101BA00002D0A868002800D103E08D212BA001F00D
:101BB000FEF92878002802D02878012800D103E017
:101BC0008E2126A001F0F3F96878002802D0687809
:101BD000012800D103E08F2120A001F0E8F9206A5C
:101BE00020218843A968490120221140084320622E
:101BF000206A802188432062A0690321090288436A
:101C0000A061A069510188432978890252011140DD
:101C10000843A061A069510088436978C902520055
:101C200011400843A061A06907210903884369683E
:101C300009030722120311400843A061A069012192
:101C400009068843A988C90809060122120611401D
:101C50000843A06170BD0000001800402E2E5C4CAF
:101C600069627261726965735C7372635C63773316
:101C7000326C3031305F6774696D2E630000000094
:101C800070B504460D460548844200D103E004497E
:101C900004A001F08CF9A56370BD0000001800409D
:101CA000250200002E2E5C4C6962726172696573B8
:101CB0005C7372635C637733326C3031305F6774AE
:101CC000696D2E630000000070B505460C4639486A
:101CD000854200D103E03E2137A001F068F9206879
:101CE000802802D02068002800D103E03F2132A0E4
:101CF00001F05DF96068002808D06068202805D0F0
:101D00006068402802D06068602800D103E040216C
:101D100029A001F04CF9A068002802D0A068102882
:101D200000D103E0412124A001F041F9E068082836
:101D300002D0E068002800D103E042211EA001F09B
:101D400036F92069042802D02069002800D103E078
:101D5000432119A001F02BF96069002802D06069C5
:101D6000022800D103E0442113A001F020F91B490F
:101D7000A069884200D803E045210FA001F017F9BF
:101D8000616820680843A1680843E1680843216945
:101D90000843616908432968FE229143084328608B
:101DA000A069A862E069E862A868C008C000A860ED
:101DB00070BD0000001800402E2E5C4C69627261FC
:101DC000726965735C7372635C637733326C303154
:101DD000305F6774696D2E6300000000FFFF000034
:101DE00010B500F001F810BD014800687047000010
:101DF0008C00002010B50120054908700420054919
:101E00000870002103480078FFF782FB10BD000036
:101E10006E0000200900002010B501200E49087056
:101E20000E480078042803D100200C4908700DE00A
:101E30000A480078401C094908700878C117890FC2
:101E4000091889108900411A044A117000210348B9
:101E50000078FFF75DFB10BD6E0000200900002038
:101E600010B5FA2400201649087048708870FFF7F2
:101E7000BBFF14490968401AFA2820D3FFF7B4FFC2
:101E80001049086010480078002803D0002000F0B6
:101E9000B5F902E0002000F0BDF90B4800780121FF
:101EA000484009490870012000F0A8F9022000F01C
:101EB000A5F9032000F0A2F9042000F09FF910BD5D
:101EC00028000020600000206400002000BFFEE722
:101ED0007047000070B504463E4D2068002811D0C0
:101EE000206801280ED0206802280BD02068032823
:101EF00008D02068042805D02068052802D0206872
:101F0000072800D103E02C2133A001F050F86068CD
:101F1000002802D06068082800D103E02D212EA0FF
:101F200001F045F8E068202802D0E068002800D1E0
:101F300003E02E2128A001F03AF830496069884278
:101F400000D803E02F2124A001F031F82B492069AB
:101F5000884200D803E030211FA001F028F828486B
:101F6000406B102188431030254948632548264995
:101F7000086026480860207A012809D16168206835
:101F8000084310210843E16808431F49486006E000
:101F9000616820680843E16808431B4948601A49A2
:101FA000206988606069086100BF1748C068400701
:101FB000400F002804D02846691E8DB20028F4D1B5
:101FC000002D01D1012070BD11480F49086000208B
:101FD000F9E70000FFFF00002E2E5C4C6962726181
:101FE000726965735C7372635C637733326C303132
:101FF000305F697764742E6300000000FF0F0000FB
:1020000000400040CCCC000000500040555500007E
:10201000666600000148024908607047AAAA0000ED
:102020000050004010B586B0044618216846FEF7FF
:1020300098F87F2C05D03F2C03D01F2C01D00F2CFB
:1020400000D103E0F12112A000F0B1FF01206946A8
:10205000087200200190202003900720009015486E
:1020600005900494144840680007C00F002801D16F
:1020700000F010FB6846FFF72DFF00BF0F48104926
:10208000086000BF00BF0F48086000BF06B010BD69
:102090002E2E5C4C69627261726965735C73726347
:1020A0005C637733326C3031305F697764742E63F0
:1020B00000000000FF0F000000400040CCCC0000FA
:1020C00000500040AAAA000070B5054615480178E6
:1020D0007D20C000FEF714F8064631462846FEF77C
:1020E0000FF80446601E1049884201D901200CE017
:1020F000601E0E4948610321081F00F00DFF0020FB
:102100000A498861072008610020002800D070BDBE
:102110000021481E00F000FF00200549086000BFB4
:10212000F5E7000094000020FFFFFF0000E000E062
:102130009000002004200149C86170474000004819
:10214000042001498861704740000048022001498D
:10215000C86170474001004802200149886170470A
:102160004001004810B5002406E0E100044A891847
:1021700048688047601CC4B2052CF6D310BD00002F
:102180003800002070B5054600240DE0AC4204D1B3
:10219000E100074A5058804704E0E100044A8918EA
:1021A00048688047601CC4B2052CEFD370BD0000A6
:1021B0003800002040200149C861704740010048B4
:1021C00040200149886170474001004801200149D1
:1021D000C86170474001004801200149886170478B
:1021E0004001004808200149C8617047400000488C
:1021F00008200149886170474000004810B5044636
:10220000052C04D2E100024A89184868804710BDB5
:102210003800002010B50446052C03D2E100024A24
:102220005058804710BD00003800002010B5FEF760
:102230002BFF10480078030000F060FE070516141D
:1022400015130A17120000F065FC00F061FB0FE0A7
:102250000220094908704870887000F059FB07E0B7
:1022600000BF00BF00BF00BF00BFFFF7F9FD00BF08
:1022700000BF10BD65000020280000207047704797
:102280007047000000B597B0FFF7E6FA20210FA8CD
:10229000FDF767FF00200C900D900E903E48806B7C
:1022A0003E4908433C4988630020109080200F90ED
:1022B000002011900420139003201590002012900C
:1022C00037481690022014900FA93648FFF7FCFCFF
:1022D000002108A8017406200D9000200E9008A887
:1022E00041740CA92F48FFF743FC82212D48FFF7CA
:1022F000C7FC01212B48FFF709FC01212948FFF702
:10230000AFFB1C2105A8FDF72CFF002001900290D7
:10231000039004900021684601756020069000201B
:1023200007900890082009901D48401C0A90002042
:102330000B9005A8FEF798FC002168464174817453
:1023400000200390012168460174072002900020BC
:10235000019001A8FEF7F2FC0120FEF7C5FB01A8E1
:10236000FEF76CFD0120FEF7E9FB01A8FEF7EEFD8C
:102370000120FEF70FFC0120FEF746FC0120FEF7CE
:1023800037FC0020FEF76AFE0020FEF76DFE0020FD
:10239000FEF770FE17B000BD0040004040005A5AE2
:1023A000B70B0000001800407047704710B52D486B
:1023B0000078002806D001280FD002281FD003285B
:1023C0004ED134E0822000F07FFAFEF77DFF00203E
:1023D000254908702549087042E0822000F074FA0F
:1023E000FEF772FF22480078002807D102201D491D
:1023F000087000201C4908701C49087030E0FEF786
:102400005DFF4B20C00000F05FFA1A480088AF2142
:10241000890088420ADD144801780078401C124A7D
:1024200010701E2902DD03200E49087018E0FEF727
:102430004BFF10480088FF21F53188420FDA0B4826
:1024400001780078401C094A1070C82907DD022075
:10245000044908700020114608700349087000BF45
:1024600000BF10BD6E0000207C0000207D00002019
:1024700065000020160000207047704770B50024EA
:1024800000260025184800684607760F1648806920
:102490004004050F002E06D0012E0CD0032E0CD0C8
:1024A000042E0FD10BE0A800104A11581048FDF778
:1024B00027FE04460EE00F4C0CE00F4C0AE001240E
:1024C000E40307E0A800094A11580948FDF718FE7F
:1024D000044600BF00BF044800680006410F2046C4
:1024E000C8400446204670BD00400040C432000091
:1024F000006CDC020024F4002080000010B50446CB
:10250000002C0DD0202C0BD0402C09D0602C07D0F3
:10251000802C05D0A02C03D0C02C01D0E02C00D101
:1025200003E0342106A000F042FD0E4800680E4989
:1025300008400E49401820430A49086010BD0000B9
:102540002E2E5C4C69627261726965735C73726392
:102550005C637733326C3031305F737973637472DC
:102560006C2E6300004000401FFF000000005A5A1C
:1025700070B50446394D0120C002844238D0400075
:10258000844235D00320C002844231D00120400370
:1025900084422DD00520C002844229D003200003AC
:1025A000844225D00720C002844221D0012080032C
:1025B00084421DD00920C002844219D005200003A6
:1025C000844215D00B20C002844211D00320400366
:1025D00084420DD00D20C002844209D007200003A0
:1025E000844205D00F20C002844201D0002C00D1CB
:1025F00004E0FF211B311AA000F0D9FC0120C00229
:1026000084420BD11F4800684007400F002805D1C5
:102610001C4880681C4908431A4988601B48008888
:102620004005400D20431749886108464068164917
:102630000F3908431349486001E0681E85B211480C
:1026400080690121C9030840002801D1002DF4D17F
:10265000002D01D1012070BD0020FCE7FFFF00002C
:102660002E2E5C4C69627261726965735C73726371
:102670005C637733326C3031305F737973637472BB
:102680006C2E63000040004010005A5AC007100032
:10269000704700001249134840888005800D124A97
:1026A00010621046006A0322920210430E4A106222
:1026B000104640680D4A10430B4A506001E0481E26
:1026C00081B20948006A0122D2031040002801D1DA
:1026D0000029F4D1002901D1012070470020FCE736
:1026E000FFFF0000C00710000040004008005A5AD9
:1026F00010B50446002C0DD0202C0BD0402C09D056
:10270000602C07D0802C05D0A02C03D0C02C01D089
:10271000E02C00D103E03E2106A000F048FC0E486A
:1027200000680E4908400E49401820430A490860D5
:1027300010BD00002E2E5C4C696272617269657377
:102740005C7372635C637733326C3031305F737902
:10275000736374726C2E630000400040E7FF00005A
:1027600000005A5A70B50446002C05D0012C03D045
:10277000032C01D0042C00D103E04A2108A000F072
:1027800016FC1048006810490840104940182043C2
:102790000C490860FFF772FE054600F019F870BD9D
:1027A0002E2E5C4C69627261726965735C73726330
:1027B0005C637733326C3031305F7379736374727A
:1027C0006C2E630000400040F8FF000000005A5AE1
:1027D00001490860704700009800002010B5324899
:1027E0000078002806D001280FD0022829D003281D
:1027F00057D13EE0FEF768FD00202C4908702C49B7
:102800000870822000F060F84BE02A480068FDF76D
:1028100004FEC4B2204600F019FC2749088082203B
:1028200000F052F8FEF750FD24480078002807D148
:1028300002201D49087000201C4908701C490870BE
:102840002FE0FEF73BFD4B20C00000F03DF81C4898
:1028500000881949098888420ADD144801780078FF
:10286000401C124A10701E2902DD03200E49087018
:1028700017E0FEF729FD12480088124988420FDA56
:102880000B4801780078401C094A1070C82907DD00
:10289000022005490870002011460870034908709D
:1028A00000BF00BF10BD00006E00002070000020BF
:1028B0007100002020000020720000206500002030
:1028C00016000020E204000070B504460025002632
:1028D0000E48FFF7F7F80546AC4204DC21460B48EA
:1028E000FFF7CEF911E0601B86B2142E07DD2846F3
:1028F000143084B221460548FFF7C2F905E0A81953
:1029000084B221460148FFF7BBF970BD00180040B2
:1029100010B511480078030000F0F0FA0504080C27
:10292000101418000020FFF72DFC12E00120FFF723
:1029300029FC0EE00220FFF725FC0AE00320FFF748
:1029400021FC06E00420FFF71DFC02E0FFF70AFC73
:1029500000BF00BF10BD0000090000200C48006847
:102960000C49097840180A49086000200CE08100F1
:10297000094A5158012905D981005158491E820040
:10298000054B9950411CC8B20728F0DB7047000086
:102990008C00002094000020EC0000200148024937
:1029A0000860704700093D009800002000B50C4900
:1029B00009884805400D0B498969C90AC9020143C4
:1029C000084A9161064949888805800D1146096ABF
:1029D000890A890201431162FFF7E0FF00BD000090
:1029E000C00710000040004010B500F0DDF80A20DC
:1029F0000149086010BD0000EC00002010B5FEF792
:102A0000CFFC00F00DFA00F055F87D20C000014920
:102A1000486010BDEC00002010B500F0EDFBC820B0
:102A20000149886010BD0000EC00002010B5FEF7E1
:102A3000DDFB14200149C86010BD0000EC0000203F
:102A400010B5FEF747FCC8200149086110BD000021
:102A5000EC00002010B5FFF7E9FBC82001494861F0
:102A600010BD0000EC0000207D20000101498861BC
:102A700070470000EC000020002000BF05E00121AD
:102A800082000B4B9950411CC8B20728F7DB0A2182
:102A9000074A11607D21C9005160C821916014214D
:102AA000D160C821116151617D2109019161704797
:102AB000EC0000207FB50026002500240CE0E0009B
:102AC0001049085A61006A46505260006946085A27
:102AD000401985B2601CC4B2082CF0DBEE100A4825
:102AE0000680008800F098FA084908607F21C9052F
:102AF00006480068FDF7D6FC02D8002003490860AC
:102B00007FBD00009C0000201C0000202000002051
:102B10007047704710B51F4A1E483230AF21C900B8
:102B20001D4B1B78042B03D1912292001B484910A6
:102B3000194B1B78002B04D1194C23706370A370C0
:102B400010BD184B1B88934206DA0123144C2370E6
:102B500000236370A3701BE0124B1B88834207DACB
:102B600002230F4C2370012363700023A3700FE036
:102B70000C4B1B888B4206DA0223094C23706370CE
:102B80000123A37004E00223054C23706370A3703B
:102B900000BFD5E714050000090000207602000000
:102BA000280000201600002010B51E4800780221E1
:102BB0000840002834D00020FDF7F0FE1A490978BB
:102BC000C9001A4A8818FDF777FD17490978C90026
:102BD000164A8918881CFDF779FD13490978C90040
:102BE000124A8918081DFDF77BFD0F490978C900B5
:102BF0000E4A8918881DFDF77DFD0B480078401CA2
:102C0000094908700A2108480078FDF78FFAC8B210
:102C1000054908700020034908700120FDF7BEFE39
:102C200010BD000024000020260000209C00002091
:102C300000B593B03548006B354908433349086304
:102C40000846006B32491031084330490863084692
:102C5000806B2F490F3908432C4988630920C0062F
:102C6000C0691021884310300921C906C86108468F
:102C7000C0692021884320300921C906C86108465F
:102C8000C0694021884340300921C906C8612148F4
:102C9000C0690821884308301E49C8614C21684634
:102CA000FDF75FFA0020009008200190C0200290FC
:102CB0000421049106200390052106910720059028
:102CC0000621089107900A210A9108200990684678
:102CD000FDF766FDFDF7E0FC01210220FDF726FD72
:102CE0000C20002809DB00BF00BFC206D20E012164
:102CF0009140094A116000BF00BF00BFFDF7D2FC40
:102D00000120FDF74BFE13B000BD00000040004065
:102D100010005A5A0001004800E100E00EB5002002
:102D20000090019002901748006B1749084315491D
:102D300008630846006B14491031084311490863C1
:102D4000FEF778FE802000901120019080200290F4
:102D500069460E48FEF702FE0E20009020200190EA
:102D60008020029069460920C006FEF7F7FD432047
:102D70000090202001908020029069460348FEF7D1
:102D8000EDFD0EBD0040004010005A5A0001004801
:102D900070477047F0B589B00546002600271D48EA
:102DA0000890002007900690002400BF13E0600008
:102DB000295A0898814202DA6000285A0890600077
:102DC000285AB84201DD60002F5A6000285A801945
:102DD00086B2601CC4B20A2CE9DB0898C019301A0C
:102DE0004003000C07900798FDF7E2FA0190FDF709
:102DF00028FB094A094B03910290FDF771FA0591EE
:102E00000490FDF732FB06900698FDF706FB80B2B2
:102E100009B0F0BDFFFF000046B6F3FDD478F53FE2
:102E200010B58AB0002408E0E0002349401840882B
:102E3000610005AA5052601CC4B20A2CF4DB0024C5
:102E400008E0E0001C494018808861006A46505242
:102E5000601CC4B20A2CF4DB05A8FFF79BFF1749DE
:102E60000880084600880A2801DC0020088068469F
:102E7000FFF790FF12490880084600880A2801DC05
:102E8000002008800D4800880D490988884206DD29
:102E900001200C49087000200B49088009E008480F
:102EA000008806490988401A07490880002005491A
:102EB00008700AB010BD00009C0000201400002023
:102EC0001800002025000020160000207047202157
:102ED000020C01D010211046020A01D01046083918
:102EE000020901D01046091F820801D01046891E30
:102EF000420801D0881E7047081A704730B47446E3
:102F0000641E2578641CAB4204D3635D5B00E31848
:102F100030BC18471D46F8E710B5002819DB1A4ADF
:102F200003231B02D21883089B00D2588307DC0EB0
:102F3000FF23A3409A438B071B0E8407E40EA34094
:102F40001A43114B032424021B198408A4001A51AC
:102F500018E00E4A03071B0F083B9B089B00D25842
:102F60008307DC0EFF23A3409A438B071B0E8407C5
:102F7000E40EA3401A43054B0407240F083CA408A1
:102F8000A4001A5110BD000000E100E01CED00E0BB
:102F900002E008C8121F08C1002AFAD17047704722
:102FA000002001E001C1121F002AFBD170477047C9
:102FB00010B50020FFF7D6FB0120C002FFF7D8FABA
:102FC0000020FFF79BFA1020FFF792FB0E48406BA2
:102FD0000E4908430C4948630D48FFF775F8FFF7A1
:102FE0009DFEFFF725FEFFF74DF9FFF745FD7F201A
:102FF000FFF718F8FFF7B6F8FEF7F2F90020FEF732
:103000007FFA0449087010BD0040004010005A5A71
:10301000006CDC020A000020F1B582B00298FDF7D6
:10302000CFF90446064A074BFDF75AF90022064B32
:1030300001910090FDF7A0F80646FDF716FAFEBDD7
:10304000EC51B81E85EBA1BF00F05740FEB5054618
:10305000192002902D20400101901120C0430090C2
:103060002846193846B21121C943714308460A213E
:10307000FDF75CF807B22D204001381884B20748EC
:10308000844200DD00E02046044604485A38844269
:1030900000DA00E0204604462046FEBDDC050000C4
:1030A00010B525480078002806D001280DD0022848
:1030B00025D003283ED13AE08220FFF705FCFEF739
:1030C00003F900201D49087034E01D480068FDF731
:1030D0008BF944B2204600F03BF81A490880822060
:1030E000FFF7F2FBFEF7F0F817480078002805D14B
:1030F0000220114908700020104908701AE0FEF7FC
:10310000DDF84B20C000FFF7DFFB104800880D49B9
:10311000098888420ADD094801780078401C074A7E
:1031200010701E2902DD03200349087002E0FEF73B
:10313000CBF800BF00BF10BD6E000020780000205B
:10314000200000207A0000206500002016000020EA
:10315000F0B5014619240C4D0326F6430F1B7AB235
:1031600097007B422F46DF19B8B2B927FF00B8425B
:1031700000DD00E007463846AF27FF00B84200DA1E
:1031800000E007463846F0BDB4050000FFF710FF29
:1031900000242DE0FEF73EFF002426E0A0001549A4
:1031A000085801281FD12300FFF7A8FE0705080BC8
:1031B0000E1114171A00FFF717FC12E0FFF71EFCA0
:1031C0000FE0FFF729FC0CE0FFF730FC09E0FFF708
:1031D00037FC06E0FFF73EFC03E0FFF745FC00E0AC
:1031E00000BF00BF03E0601CC4B2072CD6DB00BFE9
:1031F000D0E70000EC00002010B52E480078002831
:1032000000D010BDFEF790FA2B49087008460078F0
:103210004978884200D1F4E727480078002820D177
:1032200026480078401CC0B224490870052800DAFE
:10323000E7E70020214908701F4840780300FFF7A6
:103240005DFE07050708090B060A0F0000BF07E02F
:1032500000BF00BF00BF00BF01201949087000BFB8
:1032600021E015484078002803D11548007814491A
:103270004870114800780300FFF740FE0713050867
:103280000C061307130000BF00BF00BF00200C494D
:10329000087007E000200A490870012005490870FD
:1032A00000E000BF00BF044800780349487000BF39
:1032B000A7E700006D000020650000206C000020E2
:1032C0006E0000201000000001000000020000005D
:1032D00003000000040000000500000006000000DC
:1032E0000700000008000000090000000A000000BC
:1032F0000B0000000C0000000D0000000E0000009C
:103300000F00000024330000000000209C0000009B
:10331000902F0000C03300009C0000207C020000C1
:10332000A02F0000000000000000000000000001CD
:10333000000000000000000000000000000000008D
:10334000000000000000000000000000000000007D
:10335000000000000000010101000000D921000070
:10336000CD210000F1210000E521000059210000DD
:103370004D210000C1210000B521000041210000C5
:1033800035210000000000000000000000000000E7
:10339000000001000000000000000000000000002C
:1033A000000000000000000000000000000000001D
:1033B00000000000040000000100000000093D00C2
:04000005000000C136
:00000001FF
